:0400000007EF00F016
:0A00080071826DED13F089EF24F012
:10100000003738392F3435362A3132332D40303DD0
:101010002B707265737320272B2720746F207265E5
:101020007374617274207468652070726F67726186
:101030006D006D657373616765203A20666972653E
:1010400020666F756E6421212121210D0073756367
:101050006365737366756C6C7920616464656400A4
:10106000323A456E74657220457869737420506118
:10107000737300313A456E746572204E6577205067
:101080006173733A0057726F6E6720706173737784
:101090006F7264212100313A456E746572204E658D
:1010A0007720506173730054656D7065726174755B
:1010B0007265203A200053797374656D206973203E
:1010C00046696E6500546F204669726520537973D6
:1010D00074656D0046697265212121210057656C98
:1010E000636F6D6500737563636573730048656155
:1010F0007421210025690000DCEC27F0F70E2C6E2E
:10110000000E2D6E010E2E6E070E2F6EDD0E306E50
:10111000100E316E84EC26F02CC07AF12DC07BF1DC
:10112000F70E2C6E000E2D6E020E2E6E030E2F6E1D
:10113000C50E306E100E316E84EC26F02CC07AF1A4
:101140002DC07BF10B0E0101766F260E756F5D0EC3
:10115000E82EFED7752FFCD7762FFAD700D0F70EE2
:101160002C6E000E2D6E010E2E6E010E2F6E960E41
:10117000306E100E316E84EC26F02CC07AF12DC04A
:101180007BF1F70E2C6E000E2D6E020E2E6E010EF0
:101190002F6E600E306E100E316E84EC26F02CC077
:1011A0007AF12DC07BF16E50D8A4D9EF08F0DBEFB7
:1011B00008F0E9EF08F0F10E176E000E186E000E41
:1011C000196E23EC29F017C07AF118C07BF1FDEFFE
:1011D00008F06E04D8A4EFEF08F0F1EF08F0FDEF8F
:1011E00008F0F10E176E000E186E010E196E23EC4A
:1011F00029F017C07AF118C07BF1F60E206E280E88
:10120000216E9C0E226E400E236EDBC00EF0DCC001
:101210000FF0106A116A000E72EC19F00EC01CF08B
:101220000FC01DF010C01EF011C01FF090EC15F0A3
:101230001CC035F01DC036F01EC037F01FC038F09E
:1012400055EC1EF035C06BF036C06CF0F60E206E1B
:10125000280E216E9C0E226E400E236ED9C00EF019
:10126000DAC00FF0106A116A000E72EC19F00EC0AD
:101270001CF00FC01DF010C01EF011C01FF090EC4C
:1012800015F01CC035F01DC036F01EC037F01FC071
:1012900038F055EC1EF035C08CF036C08DF06BC0C8
:1012A00014F06CC015F0000E176E0A0E166E11ECDD
:1012B00026F014C06BF015C06CF08CC014F08DC01B
:1012C00015F0000E176E0A0E166E11EC26F014C003
:1012D0008CF015C08DF08CC00EF08DC00FF0000E9C
:1012E000116E640E106E54EC2AF00EC014F00FC094
:1012F00015F0010E176EF40E166E11EC26F0145058
:101300006D6E6BC060F06CC061F0380E626E010EE5
:10131000636EDAEC21F060C07AF161C07BF16DC0E0
:1013200060F0616A310E626E010E636EDAEC21F0DC
:1013300060C07AF161C07BF1000E0101776F000E91
:10134000786F000E796FE90E1A6E000E1B6E700E2C
:101350001C6E000E1D6ED8EC1EF01AC07AF11BC078
:101360007BF17050D8B4B7EF09F0B9EF09F0DCEFBA
:101370000CF0000E0F6E100E0E6EDD0E106E000ED5
:10138000116EAEEC28F00EC07AF10FC07BF12D0E7D
:101390007018D8A4CEEF09F0D0EF09F0EAEF09F009
:1013A000000E706EF70E216E000E226E200E236E60
:1013B0005AEC25F021C07AF122C07BF1F70E216EA4
:1013C000000E226E100E236E97EC25F021C07AF1EC
:1013D00022C07BF12B0E7018D8A4F1EF09F0F3EFC7
:1013E00009F026EF0AF0000E706E000E0001D16FBA
:1013F000FD0E196E000E1A6E1EEC27F019C07AF160
:101400001AC07BF16A0E196E000E1A6E40EC24F0C1
:1014100019C07AF11AC07BF1680E0E6E000E0F6EC5
:10142000000E106E7BEC1CF00EC07AF10FC07BF149
:10143000F70E216E000E226E010E236E97EC25F042
:1014400021C07AF122C07BF194EF0EF0310E7018BA
:10145000D8A42DEF0AF02FEF0AF050EF0BF0030E97
:101460000001DD6136EF0AF038EF0AF050EF0BF0C3
:10147000000E0F6E100E0E6EE1C010F04BEC26F059
:101480000EC07AF10FC07BF10001E12BF70E216E47
:10149000000E226E010E236E97EC25F021C07AF12A
:1014A00022C07BF1F70E2C6E000E2D6E010E2E6EFB
:1014B000010E2F6E730E306E100E316E84EC26F01E
:1014C0002CC07AF12DC07BF1060E0101766F130E50
:1014D000756FAD0EE82EFED7752FFCD7762FFAD795
:1014E00000D0E90E1A6E000E1B6E770E1C6E010EF8
:1014F0001D6ED8EC1EF01AC07AF11BC07BF1010101
:101500007751D8B486EF0AF088EF0AF071EF0AF04D
:10151000F70E2C6E000E2D6E020E2E6E010E2F6E2B
:1015200077C130F032EC28F02CC07AF12DC07BF17D
:101530006FC00EF00F6A77C110F04BEC26F00EC0B2
:101540007AF10FC07BF16F2A030E0101766F080E4E
:10155000756F770EE82EFED7752FFCD7762FFAD74A
:10156000E90E1A6E000E1B6E780E1C6E010E1D6EBB
:10157000D8EC1EF01AC07AF11BC07BF10101785142
:10158000D8B4C5EF0AF0C7EF0AF0B0EF0AF0F70ED3
:101590002C6E000E2D6E020E2E6E020E2F6E78C176
:1015A00030F032EC28F02CC07AF12DC07BF16FC006
:1015B0000EF00F6A78C110F04BEC26F00EC07AF1F5
:1015C0000FC07BF16F2A030E0101766F080E756F55
:1015D000770EE82EFED7752FFCD7762FFAD7E90EB7
:1015E0001A6E000E1B6E790E1C6E010E1D6ED8EC6D
:1015F0001EF01AC07AF11BC07BF101017951D8B4F9
:1016000004EF0BF006EF0BF0EFEF0AF0F70E2C6E85
:10161000000E2D6E020E2E6E030E2F6E79C130F06D
:1016200032EC28F02CC07AF12DC07BF16FC00EF0A7
:101630000F6A79C110F04BEC26F00EC07AF10FC0A2
:101640007BF1060E0101766F130E756FAD0EE82E5D
:10165000FED7752FFCD7762FFAD700D0F70E216E64
:10166000000E226E010E236E97EC25F021C07AF158
:1016700022C07BF1F70E2C6E000E2D6E030E2E6E27
:10168000010E2F6E4D0E306E100E316E84EC26F072
:101690002CC07AF12DC07BF1000E706EDCEF0CF0E7
:1016A000320E7018D8A457EF0BF059EF0BF0DCEFA7
:1016B0000CF0F70E216E000E226E010E236E97ECD9
:1016C00025F021C07AF122C07BF1F70E2C6E000EBE
:1016D0002D6E010E2E6E010E2F6E600E306E100EEE
:1016E000316E84EC26F02CC07AF12DC07BF1040E13
:1016F0000101766F0C0E756F330EE82EFED7752F35
:10170000FCD7762FFAD700D0E90E1A6E000E1B6EAA
:10171000770E1C6E010E1D6ED8EC1EF01AC07AF109
:101720001BC07BF101017751D8B499EF0BF09BEF0F
:101730000BF084EF0BF0F70E2C6E000E2D6E020EE8
:101740002E6E010E2F6E77C130F032EC28F02CC0D7
:101750007AF12DC07BF1030E0101766F080E756FD3
:10176000770EE82EFED7752FFCD7762FFAD7E90E25
:101770001A6E000E1B6E780E1C6E010E1D6ED8ECDC
:101780001EF01AC07AF11BC07BF101017851D8B468
:10179000CCEF0BF0CEEF0BF0B7EF0BF0F70E2C6E9B
:1017A000000E2D6E020E2E6E020E2F6E78C130F0DE
:1017B00032EC28F02CC07AF12DC07BF1030E010130
:1017C000766F080E756F770EE82EFED7752FFCD753
:1017D000762FFAD7E90E1A6E000E1B6E790E1C6E6C
:1017E000010E1D6ED8EC1EF01AC07AF11BC07BF101
:1017F00001017951D8B4FFEF0BF001EF0CF0EAEFE3
:101800000BF0F70E2C6E000E2D6E020E2E6E030ED8
:101810002F6E79C130F032EC28F02CC07AF12DC057
:101820007BF1030E0101766F080E756F770EE82EBF
:10183000FED7752FFCD7762FFAD7000E6F6E6FC0CC
:101840000EF00F6AE00E106E000E116EAEEC28F076
:101850000EC07AF10FC07BF1010E6F240E6E0F6A7D
:10186000000E0F22DF0E106E000E116EAEEC28F08F
:101870000EC07AF10FC07BF1020E6F240E6E0F6A5C
:10188000000E0F22DE0E106E000E116EAEEC28F070
:101890000EC07AF10FC07BF1010177510001E01910
:1018A000D8B455EF0CF057EF0CF06EEF0CF0F70ECC
:1018B0002C6E000E2D6E030E2E6E010E2F6E850EF9
:1018C000306E100E316E84EC26F02CC07AF12DC0F3
:1018D0007BF1000E0001D16F4CEF0BF0010178514C
:1018E0000001DF19D8B477EF0CF079EF0CF08DEF31
:1018F0000CF0F70E2C6E000E2D6E030E2E6E010EE8
:101900002F6E850E306E100E316E84EC26F02CC0DA
:101910007AF12DC07BF169EF0CF0010179510001E2
:10192000DE19D8B496EF0CF098EF0CF0ACEF0CF099
:10193000F70E2C6E000E2D6E030E2E6E010E2F6E06
:10194000850E306E100E316E84EC26F02CC07AF1CC
:101950002DC07BF169EF0CF0F70E2C6E000E2D6E92
:10196000030E2E6E010E2F6EE50E306E100E316ED0
:1019700084EC26F02CC07AF12DC07BF1060E01011B
:10198000766F130E756FAD0EE82EFED7752FFCD750
:10199000762FFAD700D0F70E216E000E226E010EC0
:1019A000236E97EC25F021C07AF122C07BF1010E65
:1019B0000001D16F4CEF0BF00001D105D8A4E3EF8B
:1019C0000CF0E5EF0CF0D3EF08F0320E6D60EBEFAA
:1019D0000CF0EDEF0CF0EEEF0DF06C5007E1320E75
:1019E0006B5CD8B0F6EF0CF0F8EF0CF063EF0DF095
:1019F000F70E216E000E226E010E236E97EC25F07D
:101A000021C07AF122C07BF1F70E2C6E000E2D6EF4
:101A1000010E2E6E010E2F6EB60E306E100E316E50
:101A200084EC26F02CC07AF12DC07BF1F70E2C6EE1
:101A3000000E2D6E020E2E6E010E2F6EA70E306E52
:101A4000100E316E84EC26F02CC07AF12DC07BF1A3
:101A5000F70E2C6E000E2D6E020E2E6E0F0E2F6ED8
:101A6000380E306E010E316E84EC26F02CC07AF107
:101A70002DC07BF1F70E2C6E000E2D6E020E2E6E19
:101A8000110E2F6E630E306E32EC28F02CC07AF1FE
:101A90002DC07BF1690E196E000E1A6E40EC24F019
:101AA00019C07AF11AC07BF1060E0101766F130E90
:101AB000756FAD0EE82EFED7752FFCD7762FFAD7AF
:101AC00000D0CCEF0DF06C5009E1320E6B5CD8A069
:101AD0006CEF0DF06EEF0DF0CCEF0DF0F70E216E08
:101AE000000E226E010E236E97EC25F021C07AF1D4
:101AF00022C07BF1F70E2C6E000E2D6E010E2E6EA5
:101B0000010E2F6EED0E306E100E316E84EC26F04D
:101B10002CC07AF12DC07BF1F70E2C6E000E2D6ECD
:101B2000020E2E6E010E2F6EA70E306E100E316E4D
:101B300084EC26F02CC07AF12DC07BF1F70E2C6ED0
:101B4000000E2D6E020E2E6E0F0E2F6E380E306EA2
:101B5000010E316E84EC26F02CC07AF12DC07BF1A1
:101B6000F70E2C6E000E2D6E020E2E6E110E2F6EC5
:101B7000630E306E32EC28F02CC07AF12DC07BF170
:101B8000690E196E000E1A6EF7EC23F019C07AF187
:101B90001AC07BF154EF0DF0FD0E196E000E1A6E97
:101BA0001EEC27F019C07AF11AC07BF16A0E196E8B
:101BB000000E1A6E40EC24F019C07AF11AC07BF1C5
:101BC000680E0E6E000E0F6E000E106E7BEC1CF099
:101BD0000EC07AF10FC07BF1D3EF08F06C5009E131
:101BE000320E6B5CD8A0F7EF0DF0F9EF0DF092EF2D
:101BF0000EF0320E6D64FFEF0DF001EF0EF092EF7C
:101C00000EF0F70E216E000E226E010E236E97EC81
:101C100025F021C07AF122C07BF1F70E2C6E000E68
:101C20002D6E010E2E6E010E2F6ED40E306E100E24
:101C3000316E84EC26F02CC07AF12DC07BF1F70ECA
:101C40002C6E000E2D6E040E2E6E010E2F6E110ED8
:101C5000306E100E316E84EC26F02CC07AF12DC05F
:101C60007BF1FD0E196E000E1A6EECEC26F019C019
:101C70007AF11AC07BF16A0E196E000E1A6EF7EC3B
:101C800023F019C07AF11AC07BF1680E0E6E000EB7
:101C90000F6E010E106E7BEC1CF00EC07AF10FC0BF
:101CA0007BF1690E196E000E1A6E40EC24F019C01B
:101CB0007AF11AC07BF1E90E1A6E000E1B6E700EDF
:101CC0001C6E000E1D6ED8EC1EF01AC07AF11BC0FF
:101CD0007BF10001D051D8A470EF0EF072EF0EF03E
:101CE00083EF0EF0320E0F6E100E106E000E126E9D
:101CF0001A0E116ED6EC28F00FC07AF110C07BF1ED
:101D0000010E0001D06F060E0101766F130E756F84
:101D1000AD0EE82EFED7752FFCD7762FFAD700D060
:101D2000D3EF08F0D3EF08F007EF00F0000E496E94
:101D3000000E4A6E000E4B6E000E4C6EC6EF10F099
:101D4000AC98B896AC9445C0D9FF46C0DAFFDECF58
:101D500047F0DDCF48F047C00EF048C00FF0106AE2
:101D6000116A000E72EC19F00EC020F00FC021F0C5
:101D700010C022F011C023F0000E1C6E240E1D6E48
:101D8000F40E1E6E4A0E1F6EA5EC17F01CC04DF02F
:101D90001DC04EF01EC04FF01FC050F0000E206E50
:101DA000000E216E800E226E420E236E4DC01CF07E
:101DB0004EC01DF04FC01EF050C01FF0A5EC17F034
:101DC0001CC035F01DC036F01EC037F01FC038F003
:101DD000000E396E000E3A6E800E3B6EBF0E3C6EEA
:101DE0000DEC11F035C049F036C04AF037C04BF069
:101DF00038C04CF0F1EF10F0AC98B896AC8445C008
:101E0000D9FF46C0DAFFDECF47F0DDCF48F047C04C
:101E10000EF048C00FF0106A116A000E72EC19F053
:101E20000EC020F00FC021F010C022F011C023F02E
:101E3000000E1C6E240E1D6EF40E1E6E4A0E1F6EDA
:101E4000A5EC17F01CC04DF01DC04EF01EC04FF0A9
:101E50001FC050F0000E206E000E216E800E226E0C
:101E6000410E236E4DC01CF04EC01DF04FC01EF041
:101E700050C01FF0A5EC17F01CC035F01DC036F0A7
:101E80001EC037F01FC038F0000E396E000E3A6EDB
:101E9000800E3B6EBF0E3C6E0DEC11F035C049F06C
:101EA00036C04AF037C04BF038C04CF0F1EF10F0BC
:101EB000AC98B886AC9445C0D9FF46C0DAFFDECFF7
:101EC00047F0DDCF48F047C00EF048C00FF0106A71
:101ED000116A000E72EC19F00EC020F00FC021F054
:101EE00010C022F011C023F0000E1C6E240E1D6ED7
:101EF000F40E1E6E4A0E1F6EA5EC17F01CC04DF0BE
:101F00001DC04EF01EC04FF01FC050F0000E206EDE
:101F1000000E216E800E226E410E236E4DC01CF00D
:101F20004EC01DF04FC01EF050C01FF0A5EC17F0C2
:101F30001CC035F01DC036F01EC037F01FC038F091
:101F4000000E396E000E3A6E800E3B6EBF0E3C6E78
:101F50000DEC11F035C049F036C04AF037C04BF0F7
:101F600038C04CF0F1EF10F0AC98B896AC8445C096
:101F7000D9FF46C0DAFFDECF47F0DDCF48F047C0DB
:101F80000EF048C00FF0106A116A000E72EC19F0E2
:101F90000EC020F00FC021F010C022F011C023F0BD
:101FA000000E1C6E240E1D6EF40E1E6E4A0E1F6E69
:101FB000A5EC17F01CC04DF01DC04EF01EC04FF038
:101FC0001FC050F0000E206E000E216E800E226E9B
:101FD000400E236E4DC01CF04EC01DF04FC01EF0D1
:101FE00050C01FF0A5EC17F01CC035F01DC036F036
:101FF0001EC037F01FC038F0000E396E000E3A6E6A
:10200000800E3B6EBF0E3C6E0DEC11F035C049F0FA
:1020100036C04AF037C04BF038C04CF0F1EF10F04A
:10202000AC88B88645C0D9FF46C0DAFFDECF47F09E
:10203000DDCF48F047C00EF048C00FF0106A116ABB
:10204000000E72EC19F00EC020F00FC021F010C08D
:1020500022F011C023F0000E1C6E240E1D6EF40E33
:102060001E6E4A0E1F6EA5EC17F01CC04DF01DC071
:102070004EF01EC04FF01FC050F0000E206E000E3C
:10208000216E800E226E400E236E4DC01CF04EC09D
:102090001DF04FC01EF050C01FF0A5EC17F01CC083
:1020A00035F01DC036F01EC037F01FC038F0000EEE
:1020B000396E000E3A6E800E3B6EBF0E3C6E0DEC1C
:1020C00011F035C049F036C04AF037C04BF038C087
:1020D0004CF0F1EF10F0AC88B89645C0D9FF46C07F
:1020E000DAFFDECF47F0DDCF48F047C00EF048C042
:1020F0000FF0106A116A000E72EC19F00EC020F099
:102100000FC021F010C022F011C023F0000E1C6E91
:10211000240E1D6EF40E1E6E4A0E1F6EA5EC17F0F7
:102120001CC04DF01DC04EF01EC04FF01FC050F03F
:10213000000E206E000E216E800E226E400E236E69
:102140004DC01CF04EC01DF04FC01EF050C01FF01F
:10215000A5EC17F01CC035F01DC036F01EC037F0DE
:102160001FC038F0000E396E000E3A6E800E3B6EC6
:10217000BF0E3C6E0DEC11F035C049F036C04AF090
:1021800037C04BF038C04CF0F1EF10F020EE02F009
:102190004550D9264650DA22DF50476E486A4850EB
:1021A000000AD8B4D6EF10F0F1EF10F04750000A53
:1021B000D8B4A0EF0EF0010AD8B4FCEF0EF0030A79
:1021C000D8B458EF0FF0010AD8B4B4EF0FF0070AF3
:1021D000D8B410EF10F0010AD8B46BEF10F0F1EFA3
:1021E00010F049C035F04AC036F04BC037F04CC053
:1021F00038F055EC1EF03550AF6E49C035F04AC08E
:1022000036F04BC037F04CC038F055EC1EF036C0FD
:1022100035F0366A3550B06E12003850800B416E82
:1022200038503824436E37AE18EF11F01AEF11F022
:102230001BEF11F043804350D8B421EF11F023EF8E
:1022400011F038EF11F04328D8A429EF11F02BEF4B
:1022500011F033EF11F0000E356E000E366E000EE9
:10226000376E000E386E378E000E386E40EF11F06C
:10227000000E356E000E366E000E376E000E386E94
:102280003C50800B426E41504218D8B44AEF11F0D6
:102290004CEF11F04DEF11F0418C3C503C24426E5C
:1022A0003BAE55EF11F057EF11F058EF11F04280AF
:1022B0004250D8B45EEF11F060EF11F075EF11F0FD
:1022C0004228D8A466EF11F068EF11F070EF11F01A
:1022D000000E396E000E3A6E000E3B6E000E3C6E24
:1022E0003B8E000E3C6E7DEF11F0000E396E000E3D
:1022F0003A6E000E3B6E000E3C6E4350425CD8B00E
:1023000084EF11F086EF11F0ADEF11F041AC8BEFDF
:1023100011F08DEF11F08FEF11F0800E411A43C0D4
:1023200044F042C043F044C042F035C044F039C0EC
:1023300035F044C039F036C044F03AC036F044C0FD
:102340003AF037C044F03BC037F044C03BF038C0EF
:1023500044F03CC038F044C03CF0000E446E4350A2
:1023600042C03DF03E6A3D5E000E3E5A3EBEC2EFA8
:1023700011F03E5009E11A0E3D5CD8A0C2EF11F0F9
:10238000C4EF11F0FBEF11F0355036103710381054
:10239000D8A4CDEF11F0D0EF11F0010ED1EF11F074
:1023A000000E446E000E356E000E366E000E376E57
:1023B000000E386E42C043F004EF12F044A0E3EF89
:1023C00011F0E5EF11F0EBEF11F0D8904430010976
:1023D000446EEDEF11F0D890443235A0F2EF11F0D9
:1023E000F4EF11F0F5EF11F0448E38343832373213
:1023F00036323532432A4250435CD8A002EF12F005
:1024000004EF12F0DEEF11F041BC09EF12F00BEF18
:1024100012F04BEF12F04350D8A411EF12F013EF6B
:1024200012F01DEF12F0000E356E000E366E000E2B
:10243000376E000E386E6CEF13F0395035263A5077
:1024400036223B5037223C50382238A02AEF12F077
:102450002CEF12F0D8EF12F044A031EF12F033EF6E
:1024600012F039EF12F0D89044300109446E3BEF7E
:1024700012F0D890443235A040EF12F042EF12F043
:1024800043EF12F0448E3834383237323632353238
:10249000432AD8EF12F03950355C3A5036583B5049
:1024A00037583850800A3D6E3C50800A3D58D8B0AD
:1024B0005CEF12F05EEF12F089EF12F03550395CEC
:1024C0003D6E36503A583E6E37503B583F6E38504E
:1024D0003C58406EFF0E3D24356EFF0E3E20366E9A
:1024E000FF0E3F20376EFF0E4020386E800E411ADF
:1024F000446C4450D8A47FEF12F081EF12F091EFBA
:1025000012F0010E3526000E36223722382291EFC6
:1025100012F03950355E3A50365A3B50375A3C50DB
:10252000385A3550361037103810D8A49AEF12F0B8
:102530009CEF12F0D1EF12F04450D8A4A2EF12F0A9
:10254000A4EF12F0D1EF12F0000E356E000E366ED1
:10255000000E376E000E386E6CEF13F0D8903536E3
:1025600036363736383644AEB8EF12F0BAEF12F0DE
:10257000BBEF12F0358044A0C0EF12F0C2EF12F0B2
:10258000C6EF12F0D8804436C8EF12F0D890443627
:102590004350D8B4CEEF12F0D0EF12F0D1EF12F0DA
:1025A000430637AED6EF12F0D8EF12F0AEEF12F0CE
:1025B000000E426E44AEDFEF12F0E1EF12F0F9EFE1
:1025C00012F044C03DF07F0E3D16D8B4EAEF12F091
:1025D000ECEF12F0F0EF12F0010E426EF9EF12F094
:1025E00035A0F5EF12F0F7EF12F0F9EF12F0ECEF83
:1025F00012F04250D8B4FFEF12F001EF13F02CEFBD
:1026000013F0010E3526000E36223722382238A06C
:102610000CEF13F00EEF13F02CEF13F035C03DF07C
:1026200036C03EF037C03FF038C040F04034403252
:102630003F323E323D323DC035F03EC036F03FC005
:1026400037F040C038F04328D8B429EF13F02BEF0F
:1026500013F02CEF13F0432A4328D8B432EF13F0D1
:1026600034EF13F03CEF13F04350D8A43AEF13F0DB
:102670003CEF13F04EEF13F0000E356E000E366E89
:10268000000E376E000E386E4350D8A44AEF13F098
:102690004CEF13F04EEF13F0000E416E43A053EFDA
:1026A00013F055EF13F058EF13F0378E59EF13F086
:1026B000379ED8904330386E41AE61EF13F063EF30
:1026C00013F064EF13F0388E35C035F036C036F0B5
:1026D00037C037F038C038F012000600FACF0AF0E1
:1026E000FBCF0BF0D9CF0CF0DACF0DF0F2A87BEFD7
:1026F00013F07DEF13F086EF13F0F2A282EF13F0E8
:1027000084EF13F086EF13F0DDEC2AF0F0A68BEFE8
:1027100013F08DEF13F096EF13F0F0A092EF13F09B
:1027200094EF13F096EF13F0DBEC2AF0F0A89BEF98
:1027300013F09DEF13F0A6EF13F0F0A2A2EF13F049
:10274000A4EF13F0A6EF13F0D9EC2AF0F2A6ABEF4A
:1027500013F0ADEF13F0C8EF13F0F2A0B2EF13F0E7
:10276000B4EF13F0C8EF13F081A8B9EF13F0BBEF8B
:1027700013F0C8EF13F06704D8A4C1EF13F0C3EF50
:1027800013F0C8EF13F0000E676E000E9DEC2AF0F8
:10279000F2A6CDEF13F0CFEF13F0EAEF13F0F2A0B3
:1027A000D4EF13F0D6EF13F0EAEF13F081BADBEFBA
:1027B00013F0DDEF13F0EAEF13F06750D8A4E3EF66
:1027C00013F0E5EF13F0EAEF13F0010E676E010E60
:1027D0009DEC2AF0F2A6EFEF13F0F1EF13F00CEFFF
:1027E00014F0F2A0F6EF13F0F8EF13F00CEF14F082
:1027F00081AAFDEF13F0FFEF13F00CEF14F0660465
:10280000D8A405EF14F007EF14F00CEF14F0000E4D
:10281000666E000E90EC2AF0F2A611EF14F013EFA2
:1028200014F02EEF14F0F2A018EF14F01AEF14F0D9
:102830002EEF14F081BA1FEF14F021EF14F02EEFF9
:1028400014F06650D8A427EF14F029EF14F02EEFFF
:1028500014F0010E666E010E90EC2AF0F2A633EF32
:1028600014F035EF14F050EF14F0F2A03AEF14F03A
:102870003CEF14F050EF14F081AC41EF14F043EF53
:1028800014F050EF14F06504D8A449EF14F04BEFA6
:1028900014F050EF14F0000E656E000E83EC2AF079
:1028A000F2A655EF14F057EF14F072EF14F0F2A007
:1028B0005CEF14F05EEF14F072EF14F081BC63EF84
:1028C00014F065EF14F072EF14F06550D8A46BEFBC
:1028D00014F06DEF14F072EF14F0010E656E010E3E
:1028E00083EC2AF0F2A677EF14F079EF14F094EF6E
:1028F00014F0F2A07EEF14F080EF14F094EF14F0D7
:1029000081AE85EF14F087EF14F094EF14F06404B7
:10291000D8A48DEF14F08FEF14F094EF14F0000EA4
:10292000646E000E76EC2AF0F2A699EF14F09BEF9D
:1029300014F0B6EF14F0F2A0A0EF14F0A2EF14F030
:10294000B6EF14F081BEA7EF14F0A9EF14F0B6EFC4
:1029500014F06450D8A4AFEF14F0B1EF14F0B6EF58
:1029600014F0010E646E010E76EC2AF09DACBBEF04
:1029700014F0BDEF14F0C6EF14F09EACC2EF14F0EB
:10298000C4EF14F0C6EF14F0F1EC29F0F2AACBEF8B
:1029900014F0CDEF14F0D6EF14F0F2A4D2EF14F04F
:1029A000D4EF14F0D6EF14F0C3EC2AF09DA0DBEFC7
:1029B00014F0DDEF14F0E6EF14F09EA0E2EF14F057
:1029C000E4EF14F0E6EF14F0BDEC2AF09DA2EBEF7B
:1029D00014F0EDEF14F0F6EF14F09EA2F2EF14F005
:1029E000F4EF14F0F6EF14F0C9EC2AF0A0A2FBEF1C
:1029F00014F0FDEF14F006EF15F0A1A202EF15F0B0
:102A000004EF15F006EF15F0B6EC2AF09DA40BEFDD
:102A100015F00DEF15F016EF15F09EA412EF15F05E
:102A200014EF15F016EF15F0E3EC2AF0A0A01BEF61
:102A300015F01DEF15F026EF15F0A1A022EF15F00F
:102A400024EF15F026EF15F0E1EC2AF09DA42BEF12
:102A500015F02DEF15F036EF15F09EA432EF15F0BE
:102A600034EF15F036EF15F0DFEC2AF09DA83BEFC0
:102A700015F03DEF15F046EF15F09EA842EF15F06A
:102A800044EF15F046EF15F0D1EC2AF09DAA4BEF7C
:102A900015F04DEF15F056EF15F09EAA52EF15F018
:102AA00054EF15F056EF15F0E6EC2AF09DA65BEF1B
:102AB00015F05DEF15F066EF15F09EA662EF15F0CC
:102AC00064EF15F066EF15F0D3EC2AF09DA66BEFDE
:102AD00015F06DEF15F076EF15F09EA672EF15F07C
:102AE00074EF15F076EF15F0D5EC2AF0A0A67BEF89
:102AF00015F07DEF15F086EF15F0A1A682EF15F029
:102B000084EF15F086EF15F0D7EC2AF00DC0DAFF50
:102B10000CC0D9FF0BC0FBFF0AC0FAFF7192110075
:102B20001F50800B286E1F501F242E6E1EAE9BEF71
:102B300015F09DEF15F09EEF15F02E802E50D8B4B5
:102B4000A4EF15F0A6EF15F0B9EF15F02E28D8A4D4
:102B5000ACEF15F0AEEF15F0B6EF15F0000E1C6EF1
:102B6000000E1D6E000E1E6E000E1F6E1E8EC1EF3B
:102B700015F0000E1C6E000E1D6E000E1E6E000E77
:102B80001F6E2350800B281A23502324296E22AE57
:102B9000CCEF15F0CEEF15F0CFEF15F029802950CE
:102BA000D8B4D5EF15F0D7EF15F0EAEF15F02928D6
:102BB000D8A4DDEF15F0DFEF15F0E7EF15F0000E0C
:102BC000206E000E216E000E226E000E236E228EED
:102BD000F2EF15F0000E206E000E216E000E226E38
:102BE000000E236E2950D8B4F8EF15F0FAEF15F067
:102BF00002EF16F02E50D8A400EF16F002EF16F0F8
:102C00000CEF16F0000E1C6E000E1D6E000E1E6EF8
:102C1000000E1F6EA4EF17F022501C02F3CF33F00A
:102C2000F4CF34F033502A6E2B6A2C6A2D6A34505C
:102C30002F6E306A316A326A21501D02F3CF33F0B1
:102C4000F4CF34F033502A26000E2B222C222D22D2
:102C500034502F26000E30223122322220501E0204
:102C6000F3CF33F0F4CF34F033502A26000E2B226A
:102C70002C222D2234502F26000E302231223222D7
:102C80002CC02DF02BC02CF02AC02BF02A6A20502B
:102C90001D02F3CF33F0F4CF34F033502A263450F2
:102CA0002B22000E2C22000E2D2221501C02F3CFCD
:102CB00033F0F4CF34F033502A2634502B22000E58
:102CC0002C22000E2D222CC02DF02BC02CF02AC05F
:102CD0002BF02A6A20501C02F3CF33F0F4CF34F0EB
:102CE00033502A2634502B22000E2C22000E2D2287
:102CF00022501D02F3CF33F0F4CF34F033502F269F
:102D000034503022000E3122000E322221501E0299
:102D1000F3CF33F0F4CF34F033502F263450302239
:102D2000000E3122000E322222501E02F3CF33F069
:102D3000F4CF34F03350246E3450256E266A276A5F
:102D400026C027F025C026F024C025F0246A245090
:102D50002F262550302226503122275032222AC0D9
:102D600024F02BC025F02CC026F02DC027F0190E22
:102D7000BFEF16F0D8902732263225322432E82EC3
:102D8000BAEF16F024502F2625503022265031223B
:102D9000275032222CC02DF02BC02CF02AC02BF053
:102DA0002A6A29502EC024F0256A2426000E2522E6
:102DB000820E2424336EFF0E2520346EF5EF16F0BC
:102DC000D8902F363036313632362DAEEAEF16F047
:102DD000ECEF16F0EDEF16F02F80D8902A362B3658
:102DE0002C362D363306D8A0340631AEFAEF16F065
:102DF000FCEF16F0E0EF16F0000E296E2DAE03EF9B
:102E000017F005EF17F029EF17F0FF0E2A14246EC4
:102E1000FF0E2B14256EFF0E2C14266E7F0E2D1424
:102E2000276E2450251026102710D8B41AEF17F05B
:102E30001CEF17F020EF17F0010E296E29EF17F0A5
:102E40002FA025EF17F027EF17F029EF17F01CEF51
:102E500017F02950D8B42FEF17F031EF17F055EFD6
:102E600017F0010E2F26000E30223122322232A01E
:102E70003CEF17F03EEF17F055EF17F02FC024F09E
:102E800030C025F031C026F032C027F02734273279
:102E900026322532243224C02FF025C030F026C03F
:102EA00031F027C032F0334A342A34BE60EF17F0D5
:102EB000345008E13328D8A060EF17F062EF17F024
:102EC0006CEF17F0000E2F6E000E306E800E316E1C
:102ED0007F0E326E9AEF17F034BE79EF17F0345050
:102EE00006E13304D8B077EF17F079EF17F085EFEC
:102EF00017F0000E2F6E000E306E000E316E000EB9
:102F0000326E000E286E9AEF17F033C02EF0FF0ECF
:102F10002F16FF0E30167F0E3116000E32162EA021
:102F200094EF17F096EF17F097EF17F0318ED890D7
:102F30002E30326E285032122FC01CF030C01DF0DF
:102F400031C01EF032C01FF012001F50800B2C6EDB
:102F50001F501F24336E1EAEB0EF17F0B2EF17F004
:102F6000B3EF17F033803350D8B4B9EF17F0BBEF9D
:102F700017F0D0EF17F03328D8A4C1EF17F0C3EF44
:102F800017F0CBEF17F0000E1C6E000E1D6E000E3A
:102F90001E6E000E1F6E1E8E000E1F6ED8EF17F0F5
:102FA000000E1C6E000E1D6E000E1E6E000E1F6EBB
:102FB0002350800B2C1A23502324346E22AEE3EFCF
:102FC00017F0E5EF17F0E6EF17F034803450D8B47F
:102FD000ECEF17F0EEEF17F003EF18F03428D8A459
:102FE000F4EF17F0F6EF17F0FEEF17F0000E206E7B
:102FF000000E216E000E226E000E236E228E000E39
:10300000236E0BEF18F0000E206E000E216E000EE6
:10301000226E000E236E2050211022102310D8A4FF
:1030200014EF18F016EF18F02EEF18F0000E1C6ECB
:10303000000E1D6E000E1E6E000E1F6E800E1E1204
:103040007F0E1F122C501F121CC01CF01DC01DF043
:103050001EC01EF01FC01FF071EF19F03350D8A42E
:1030600034EF18F036EF18F040EF18F0000E1C6E39
:10307000000E1D6E000E1E6E000E1F6E71EF19F019
:10308000345033C024F0256A245E000E255A7F0E8A
:1030900024242D6E000E25202E6E1CC028F01DC08D
:1030A00029F01EC02AF01FC02BF0000E1C6E000E6F
:1030B0001D6E000E1E6E000E1F6E000E2F6E000E97
:1030C000306E000E316E000E326E000E346EA1EFC7
:1030D00018F03450D8B46FEF18F071EF18F088EF93
:1030E00018F0D890283629362A362B36D8901C3638
:1030F0001D361E361F3632AE80EF18F082EF18F004
:1031000083EF18F01C80D8902F36303631363236A7
:103110002050285C2150295822502A5823502B58DF
:10312000D8A095EF18F097EF18F0A0EF18F0328CB8
:103130002050285E2150295A22502A5A23502B5AB7
:10314000342A190E3464A7EF18F0A9EF18F069EFCC
:1031500018F0285029102A102B10D8B4B2EF18F00C
:10316000B4EF18F0CCEF18F02F80CCEF18F0D89017
:103170001C361D361E361F3632AEC1EF18F0C3EFB7
:1031800018F0C4EF18F01C80D8902F363036313646
:1031900032362D06D8A02E061EAED1EF18F0D3EF92
:1031A00018F0B7EF18F0000E346E32AEDAEF18F008
:1031B000DCEF18F000EF19F0FF0E2F14246EFF0E55
:1031C0003014256EFF0E3114266E7F0E3214276EDA
:1031D0002450251026102710D8B4F1EF18F0F3EF83
:1031E00018F0F7EF18F0010E346E00EF19F01CA084
:1031F000FCEF18F0FEEF18F000EF19F0F3EF18F005
:103200003450D8B406EF19F008EF19F02CEF19F08C
:10321000010E1C26000E1D221E221F221FA013EFCE
:1032200019F015EF19F02CEF19F01CC024F01DC097
:1032300025F01EC026F01FC027F027342732263283
:103240002532243224C01CF025C01DF026C01EF0FB
:1032500027C01FF02D4A2E2A2EBE37EF19F02E5010
:1032600008E12D28D8A037EF19F039EF19F044EF15
:1032700019F0000E2E6E2D68000E1C6E000E1D6ED5
:10328000000E1E6E000E1F6E2EBE51EF19F02E5056
:1032900006E12D04D8B04FEF19F051EF19F05FEFB0
:1032A00019F0000E2E6E000E2D6E000E1C6E000E1C
:1032B0001D6E000E1E6E000E1F6E000E2C6E2DC0B9
:1032C00033F033A066EF19F068EF19F06BEF19F0E7
:1032D0001E8E6CEF19F01E9ED89033301F6E22EFB9
:1032E00018F01200166E1650D8B479EF19F07BEF73
:1032F00019F09DEF19F011BE82EF19F080EF19F06F
:103300009DEF19F00EC012F00FC013F010C014F0B2
:1033100011C015F0121E131E141E151E122A000EC7
:1033200013221422152212C018F013C019F014C071
:103330001AF015C01BF0A5EF19F00EC018F00FC061
:1033400019F010C01AF011C01BF00E500F10101021
:103350001110D8A4AEEF19F0B0EF19F0BAEF19F0D0
:10336000000E0E6E000E0F6E000E106E000E116E2F
:103370004BEF1AF0960E176EC4EF19F0172AD8907B
:103380001B321A3219321832000E1814126E000E47
:103390001914136E000E1A14146EFE0E1B14156E03
:1033A0001250131014101510D8A4D9EF19F0DBEF38
:1033B00019F0BEEF19F0E9EF19F0172A010E1826DF
:1033C000000E19221A221B22D8901B321A321932EF
:1033D0001832000E1814126E000E1914136E000E1F
:1033E0001A14146EFF0E1B14156E125013101410C5
:1033F0001510D8A4FEEF19F000EF1AF0DDEF19F068
:1034000008EF1AF01706D890183619361A361B36F8
:103410001ABE0DEF1AF00FEF1AF017EF1AF0020EA6
:10342000176015EF1AF017EF1AF002EF1AF017B045
:103430001CEF1AF01EEF1AF01FEF1AF01A9ED89028
:10344000173217C012F0136A146A156A12C015F009
:10345000146A136A126A1250181213501912145077
:103460001A1215501B121650D8B439EF1AF03BEF50
:103470001AF043EF1AF011BE42EF1AF040EF1AF0C3
:1034800043EF1AF01B8E18C00EF019C00FF01AC0CF
:1034900010F01BC011F012002CBE51EF1AF054EFC7
:1034A0001AF0010E55EF1AF0000E336E3350D8B4F7
:1034B0005CEF1AF05EEF1AF062EF1AF02B6C2C1E24
:1034C000D8B02C2A00018BBF6AEF1AF068EF1AF00F
:1034D00070EF1AF0000E306E010E2F6E74EF1AF0BE
:1034E0008AC02FF08BC030F088C031F089C032F034
:1034F0003350D8B47EEF1AF080EF1AF097EF1AF03D
:103500003106D8A032063350D8A489EF1AF08BEFD9
:103510001AF091EF1AF0000E2E6E2B0E2D6E95EF15
:103520001AF0000E2E6E2D0E2D6E2DC033F0000EF3
:10353000356E1F0E346E000E0101306FD0EF1AF0A1
:103540003406D8A03506110E3424D96E010E35206C
:10355000DA6E2BC00EF02CC00FF0000E116E0A0EAA
:10356000106E52EC23F00EC014F00FC015F0B2EC48
:1035700029F01450300FDF6E2F06D8A03006310628
:10358000D8A032062BC00EF02CC00FF0000E116E2A
:103590000A0E106E3EEC22F00EC02BF00FC02CF085
:1035A00035BEDBEF1AF0355008E13404D8A0DBEF6C
:1035B0001AF0DDEF1AF0F3EF1AF02B502C10D8A40C
:1035C000E4EF1AF0E6EF1AF0A0EF1AF030BEF3EFD6
:1035D0001AF0305006E12F04D8B0F1EF1AF0F3EFF3
:1035E0001AF0A0EF1AF03350D8B4F9EF1AF0FBEF4D
:1035F0001AF006EF1BF03406D8A03506110E34245D
:10360000D96E010E3520DA6E33C0DFFF29C01EF0FF
:103610002AC01FF0110E3424206E010E3520216EB9
:1036200031C022F032C023F0D4EC25F012000EC0DD
:1036300018F00FC019F012501310D8A422EF1BF08D
:1036400024EF1BF026EF1BF0D1EF1BF018C0D9FFC1
:1036500019C0DAFF10C0DFFF12501824146E135087
:103660001920156EFF0E1424D96EFF0E1520DA6E88
:1036700010C0DFFF135007E1030E125CD8B043EF18
:103680001BF045EF1BF047EF1BF0D1EF1BF020EED6
:1036900001F01850D9261950DA2210C0DFFF20EEB1
:1036A00002F01850D9261950DA2210C0DFFF12504C
:1036B0001824146E13501920156EFE0E1424D96EA2
:1036C000FF0E1520DA6E10C0DFFF12501824146EA2
:1036D00013501920156EFD0E1424D96EFF0E1520FF
:1036E000DA6E10C0DFFF135007E1070E125CD8B08E
:1036F0007CEF1BF07EEF1BF080EF1BF0D1EF1BF097
:1037000020EE03F01850D9261950DA2210C0DFFF3E
:1037100012501824146E13501920156EFC0E142428
:10372000D96EFF0E1520DA6E10C0DFFF135007E1CF
:10373000090E125CD8B09FEF1BF0A1EF1BF0A3EFB6
:103740001BF0D1EF1BF018C014F019C015F0141EB7
:10375000151E144A152A030E1414166E176A1650F5
:103760001826175019221650125E1750135AFC0EC5
:103770001216FF0E1316C8EF1BF018C0D9FF19C0A0
:10378000DAFF10C0DFFF1206D8A01306184A192A64
:1037900012501310D8A4CFEF1BF0D1EF1BF0BDEFE8
:1037A0001BF01200000E176E010E166E0E500F1059
:1037B000D8B4DDEF1BF0DFEF1BF0F0EF1BF00EC015
:1037C000D9FF0FC0DAFFDF30E832E832070B106EA6
:1037D000070E1064EEEF1BF0F0EF1BF055EF1CF03E
:1037E000000E176E000E166E76EF1CF00EC0D9FF9D
:1037F0000FC0DAFFDF30E832E832070B106E010E3F
:10380000116E102A06EF1CF0D8901136102E04EF1E
:103810001CF01150FF0A126E0EC0D9FF0FC0DAFF64
:10382000DF50070B136E1350020D530EF324D96EA5
:10383000010EF420DA6EDECF14F0DDCF15F014C0E7
:10384000D9FF15C0DAFF1250DF1676EF1CF00EC05C
:10385000D9FF0FC0DAFFDF30E832E832070B106E15
:10386000010E116E102A37EF1CF0D8901136102E71
:1038700035EF1CF00EC0D9FF0FC0DAFFDF50070B89
:10388000126E1250020D530EF324D96E010EF42065
:10389000DA6EDECF13F0DDCF14F013C0D9FF14C001
:1038A000DAFF1150DF1276EF1CF00EC0D9FF0FC007
:1038B000DAFFDFBC5EEF1CF061EF1CF0010E62EF7F
:1038C0001CF0000E106E116A1150000AD8B46BEF94
:1038D0001CF0F0EF1BF01050000AD8B4F6EF1BF00C
:1038E000010AD8B427EF1CF0F0EF1BF016C00EF061
:1038F00017C00FF01200000E186E000E176E0E505B
:103900000F10D8B486EF1CF088EF1CF099EF1CF074
:103910000EC0D9FF0FC0DAFFDF30E832E832070B04
:10392000116E070E116497EF1CF099EF1CF004EF75
:103930001DF0000E186E010E176E19EF1DF00EC06F
:10394000D9FF0FC0DAFFDF30E832E832070B116E23
:10395000010E126E112AAFEF1CF0D8901236112E04
:10396000ADEF1CF01250FF0A136E0EC0D9FF0FC04E
:10397000DAFFDF50070B146E1450020D490EF324CA
:10398000D96E010EF420DA6EDECF15F0DDCF16F021
:1039900015C0D9FF16C0DAFF1350DF1619EF1DF05E
:1039A0000EC0D9FF0FC0DAFFDF30E832E832070B74
:1039B000116E010E126E112AE0EF1CF0D890123633
:1039C000112EDEEF1CF00EC0D9FF0FC0DAFFDF5062
:1039D000070B136E1350020D490EF324D96E010E1E
:1039E000F420DA6EDECF14F0DDCF15F014C0D9FF6D
:1039F00015C0DAFF1250DF1219EF1DF0000E186E1D
:103A0000000E176E19EF1DF01050116E126A125051
:103A1000000AD8B40EEF1DF0FEEF1CF01150000AA2
:103A2000D8B49FEF1CF0010AD8B4D0EF1CF0FEEF21
:103A30001CF017C00EF018C00FF01200265027100F
:103A4000D8A425EF1DF027EF1DF02DEF1DF0000E7F
:103A50002B6E000E2A6EBAEF1DF0010E2624196E91
:103A6000000E27201A6E50EC27F026C019F027C050
:103A70001AF050EC27F0000E2C6E2C502624286EE5
:103A8000000E2720296E020E2824196E000E292010
:103A90001A6E50EC27F019C02AF01AC02BF02C2A0D
:103AA000030E2C6456EF1DF058EF1DF03DEF1DF096
:103AB000340E286EF20EE82EFED7282EFCD726C034
:103AC00021F027C022F0380E236E97EC25F00D0E62
:103AD000286EFC0EE82EFED7282EFCD726C021F03B
:103AE00027C022F0380E236E97EC25F0020E296EC7
:103AF000860E286E990EE82EFED7282EFCD7292E8A
:103B0000FAD700F026C021F027C022F0380E236E2D
:103B100097EC25F026C021F027C022F0010E236E7D
:103B200097EC25F026C021F027C022F0020E236E6C
:103B300097EC25F026C021F027C022F0060E236E58
:103B400097EC25F026C021F027C022F00C0E236E42
:103B500097EC25F026C021F027C022F0280E236E16
:103B600097EC25F026C021F027C022F0800E236EAE
:103B700097EC25F02AC026F02BC027F0120038C0A1
:103B8000D9FF39C0DAFFDECFF6FFDDCFF7FFF86AE5
:103B90000800F550250AD8A4D0EF1DF0D2EF1DF093
:103BA0003FEF1EF038C0D9FF39C0DAFFDE2A000E21
:103BB000DD22000E0001896F000E886F88C0CEF0F4
:103BC0008A698B6938C0D9FF39C0DAFFDECF42F08D
:103BD000DDCF43F042C0F6FF43C0F7FFF86A0800AC
:103BE000F550640AD8B4F7EF1DF0F9EF1DF008EFB7
:103BF0001EF042C0F6FF43C0F7FFF86A0800F55018
:103C0000690AD8A406EF1EF008EF1EF036EF1EF08A
:103C10003AC0D9FF3BC0DAFFDFCF3CF0020EDE2610
:103C2000DFCF3DF0000EDD223CC0D9FF3DC0DAFF02
:103C3000DECF3EF0DDCF3FF0010E42243C6E000EA1
:103C400043203D6E38C0D9FF39C0DAFF3CC0DEFFEB
:103C50003DC0DDFF36C029F037C02AF03EC02BF052
:103C60003FC02CF04CEC1AF054EF1EF038C0D9FFD6
:103C700039C0DAFFDE2A000EDD2254EF1EF038C014
:103C8000D9FF39C0DAFFDECFF6FFDDCFF7FFF86AE4
:103C90000800F5500E6E0F6A36C010F037C011F0F4
:103CA00010EC21F036EF1EF01200373438343E6E3F
:103CB0003E50D8A45EEF1EF060EF1EF06AEF1EF0DB
:103CC000000E356E000E366E000E376E000E386E2A
:103CD000D7EF1EF035C039F036C03AF037C03BF0B0
:103CE00038C03CF0200E7AEF1EF0D8903C323B32C8
:103CF0003A323932E82E75EF1EF039503D6E378E6C
:103D0000FF0E3516FF0E3616FF0E3716000E38164C
:103D1000960E3E5E3EBE91EF1EF08FEF1EF0A7EFB7
:103D20001EF03E50800A970FD8B099EF1EF09BEF1F
:103D30001EF09DEF1EF060EF1EF0D8903832373243
:103D4000363235323E3E9DEF1EF0BFEF1EF01F0EA5
:103D50003E64ADEF1EF0AFEF1EF0B7EF1EF060EF68
:103D60001EF0D89035363636373638363E063E5059
:103D7000D8A4BDEF1EF0BFEF1EF0B1EF1EF03D5016
:103D8000D8B4C5EF1EF0C7EF1EF0CFEF1EF0381EFF
:103D9000371E361E356C000E36223722382235C0CB
:103DA00035F036C036F037C037F038C038F0120082
:103DB0001A501B10D8A4DFEF1EF0E1EF1EF0E7EF62
:103DC0001EF0000E216E000E206E56EF1FF0000E4A
:103DD000226E000E236E000E236E000E246E245001
:103DE0001A240E6E000E1B200F6E000E106E7BEC60
:103DF0001CF0242A030E246400EF1FF002EF1FF0D2
:103E0000EFEF1EF023501A240E6E000E1B200F6ED3
:103E1000010E106E7BEC1CF0000E246E24501A2450
:103E20001E6E000E1B201F6E040E1E240E6E000E52
:103E30001F200F6E220E106E000E116E75EC21F019
:103E40002250D8B426EF1FF028EF1FF040EF1FF0EC
:103E50002350040D010EF3241E6E100EF4201F6E6D
:103E600024501E26000E1F221EC0F6FF1FC0F7FFA3
:103E7000F86A1CC0D9FF1DC0DAFF0800F5CFDFFFCC
:103E8000242A030E246447EF1FF049EF1FF00EEFC2
:103E90001FF0232A030E236450EF1FF052EF1FF090
:103EA000EDEF1EF0000E216E010E206E20C01AF004
:103EB00021C01BF01200000E096E010E086E0150A9
:103EC0000210D8B466EF1FF068EF1FF071EF1FF01B
:103ED00003500410D8A46FEF1FF071EF1FF077EFBD
:103EE0001FF0000E096E000E086ECDEF1FF020EEE1
:103EF00005F00150D9260250DA22DFA282EF1FF02E
:103F000084EF1FF098EF1FF0C350C4CF05F0066A8E
:103F100005C006F0056A0526000E062203C0D9FF7B
:103F200004C0DAFF05C0DEFF06C0DDFFCDEF1FF0E5
:103F300020EE05F00150D9260250DA22DFB2A3EFBD
:103F40001FF0A5EF1FF0C1EF1FF0C350C4CF05F065
:103F5000066A05C006F0056A0526000E0622060E52
:103F6000076E063406320532072EB1EF1FF003C08C
:103F7000D9FF04C0DAFF05C0DEFF06C0DDFFCDEFCC
:103F80001FF0C450C350056E066A03C0D9FF04C0B9
:103F9000DAFF05C0DEFF06C0DDFF08C001F009C082
:103FA00002F0120020EE04F00E50D9260F50DA2253
:103FB000DFAADDEF1FF0DFEF1FF03FEF20F0AB884F
:103FC00020EE04F00E50D9260F50DA22DFACEBEFD2
:103FD0001FF0EDEF1FF011EF20F09D8A9D8A20EE7B
:103FE00008F00E50D9260F50DA22DECF92F0DDCF46
:103FF00093F020EE0AF00E50D9260F50DA22DECFD1
:1040000090F0DDCF91F020EE0CF00E50D9260F503D
:10401000DA22DECF8EF0DDCF8FF0F28EF28C1FEF42
:1040200020F020EE04F00E50D9260F50DA22DFBC2B
:104030001CEF20F01EEF20F01FEF20F09D9A20EEE5
:1040400004F00E50D9260F50DA22DFAE2AEF20F00E
:104050002CEF20F02FEF20F0AB8C3FEF20F020EE84
:1040600004F00E50D9260F50DA22DFBE3AEF20F0CE
:104070003CEF20F03FEF20F0AB9C3FEF20F0120030
:10408000106E67EF20F09282A8EF20F09284A8EFE4
:1040900020F09286A8EF20F0928AA8EF20F0968078
:1040A000A8EF20F09682A8EF20F09684A8EF20F0E9
:1040B0009384A8EF20F09386A8EF20F09382A8EFD6
:1040C00020F09388A8EF20F09380A8EF20F0105004
:1040D0000E6E0F6A0F50000AD8B471EF20F0A8EFEF
:1040E00020F00E50000AD8B443EF20F0010AD8B4F3
:1040F00043EF20F0030AD8B446EF20F0010AD8B409
:1041000049EF20F0070AD8B44CEF20F0010AD8B4E8
:104110004FEF20F0030AD8B452EF20F0010AD8B4D0
:1041200055EF20F00F0AD8B458EF20F0010AD8B4A8
:104130005BEF20F0030AD8B45EEF20F0010AD8B498
:1041400061EF20F0070AD8B464EF20F0A8EF20F068
:104150001200000E156E010E146E11501210D8A42C
:10416000B4EF20F0B6EF20F0BCEF20F0000E156E9B
:10417000000E146E0BEF21F0C29020EE04F01150EF
:10418000D9261250DA22DF50136E13461346134617
:10419000C0501318C70B1318C06E20EE03F0115057
:1041A000D9261250DA22DF50136EC0501318F80BC4
:1041B0001318C06E20EE02F01150D9261250DA22E8
:1041C000DF50136E13461346C2501318C30B131857
:1041D000C26E20EE02F01150D9261250DA22DF50C2
:1041E00040EC20F09D8C9E9CF28EF28C11C0D9FF89
:1041F00012C0DAFFDECFCCF0DDCFCDF011C00EF073
:1042000012C00FF06EEC29F011C00EF012C00FF0CA
:1042100049EC29F0C28014C011F015C012F0120050
:1042200010501110D8B417EF21F019EF21F022EF40
:1042300021F010501110D8A420EF21F022EF21F02E
:1042400027EF21F00E50E5EC2AF074EF21F020EE7C
:104250000AF01050D9261150DA22DE50DE10D8B400
:1042600034EF21F036EF21F051EF21F020EE0AF08B
:104270001050D9261150DA2210EE03F01050E1262A
:104280001150E222DE50E65CE650800A166EDE50E7
:10429000800A1658D8B04FEF21F051EF21F074EF9B
:1042A00021F020EE03F01050D9261150DA22DECF93
:1042B00012F0DDCF13F010C0D9FF11C0DAFFDECF4E
:1042C00014F0DDCF15F012501424D96E13501520C0
:1042D000DA6E0EC0DFFF20EE03F01050D926115029
:1042E000DA22DE2A000EDD221200000E196E010E07
:1042F000186E0E500F10D8B480EF21F082EF21F02D
:104300009CEF21F010501110D8B489EF21F08BEF01
:1043100021F09CEF21F00EC0D9FF0FC0DAFFDF3093
:10432000E832E832070B126E070E12649AEF21F0A2
:104330009CEF21F0A2EF21F0000E196E000E186E16
:10434000D5EF21F00EC0D9FF0FC0DAFFDF50070B09
:10435000126E1250020D3F0EF324D96E010EF4209E
:10436000DA6EDECF13F0DDCF14F013C0D9FF14C026
:10437000DAFFDF50156E0EC0D9FF0FC0DAFFDF3055
:10438000E832E832070B166E010E176E162ACBEFD5
:1043900021F0D8901736162EC9EF21F017501514BA
:1043A00010C0D9FF11C0DAFFDF6E18C00EF019C0BF
:1043B0000FF01200000E0101736F010E726F21EEFB
:1043C0006CF0050EDE6AE806FDE2000E746F6250C6
:1043D0006310D8A4EEEF21F0F0EF21F0F6EF21F01A
:1043E000000E736F000E726F39EF22F062C00EF094
:1043F00063C00FF0000E116E200E106E000E136ED3
:10440000050E126E17EC1BF020EE05F06250D92657
:104410006350DA22DF6A6C0E4C6E010E4D6EF40EA4
:104420004E6E100E4F6E60C050F061C051F0FDEC4A
:1044300028F02AEF22F06C0E7425D96EDA6A010E8C
:10444000DA2274516224E16E000E6320E26EDFCF47
:10445000E7FF742B6C0E01017425D96EDA6A010E28
:10446000DA22DF50D8A437EF22F039EF22F01BEF29
:1044700022F072C160F073C161F01200000E136E81
:1044800011BE47EF22F045EF22F04DEF22F0106C05
:10449000111ED8B0112A010E136E0FBE54EF22F078
:1044A00052EF22F05AEF22F00E6C0F1ED8B00F2AF6
:1044B000010E131A000E156E000E146E105011101E
:1044C000D8B465EF22F067EF22F08FEF22F0010EF3
:1044D000126E6FEF22F0D89010361136122A11AEFC
:1044E00074EF22F076EF22F06BEF22F0D8901436C2
:1044F000153610500E5C11500F58D8A082EF22F0E4
:1045000084EF22F089EF22F010500E5E11500F5A06
:104510001480D89011321032122E76EF22F0135000
:10452000D8B495EF22F097EF22F09BEF22F0146CB5
:10453000151ED8B0152A14C00EF015C00FF01200C9
:1045400020EE03F00E50D9260F50DA22DFA0ABEF99
:1045500022F0ADEF22F0F9EF22F0AC8A20EE03F06A
:104560000E50D9260F50DA22DFA2B9EF22F0BBEFAE
:1045700022F0CBEF22F09D889D8820EE06F00E50B1
:10458000D9260F50DA22DECF94F0DDCF95F0F28EEF
:10459000F28CD9EF22F020EE03F00E50D9260F5006
:1045A000DA22DFB2D6EF22F0D8EF22F0D9EF22F0F4
:1045B0009D9820EE03F00E50D9260F50DA22DFA48A
:1045C000E4EF22F0E6EF22F0E9EF22F0AC8CF9EF15
:1045D00022F020EE03F00E50D9260F50DA22DFB47D
:1045E000F4EF22F0F6EF22F0F9EF22F0AC9CF9EFB5
:1045F00022F01200000E2B6E010E2A6E265027109C
:10460000D8B405EF23F007EF23F010EF23F0285084
:104610002910D8A40EEF23F010EF23F034EF23F08D
:10462000000E2B6E000E2A6E4DEF23F026C021F0F7
:1046300027C022F028C0F6FF29C0F7FF000EF86E51
:104640000F0EF76403D00800F55005D0F6CFE9FF50
:10465000F7CFEAFFEF50236E5AEC25F021C02AF085
:1046600022C02BF0284A292A28C0F6FF29C0F7FFCC
:10467000000EF86E0F0EF76403D00800F55005D059
:10468000F6CFE9FFF7CFEAFFEF500009D8A44BEFD0
:1046900023F04DEF23F016EF23F02AC026F02BC0B5
:1046A00027F01200000E136E0FBE5BEF23F059EFE0
:1046B00023F061EF23F00E6C0F1ED8B00F2A010E0D
:1046C000136E11BE68EF23F066EF23F06CEF23F05A
:1046D000106C111ED8B0112A10501110D8B473EFFD
:1046E00023F075EF23F099EF23F0010E126E7DEFAA
:1046F00023F0D89010361136122A11AE82EF23F033
:1047000084EF23F079EF23F010500E5C11500F5816
:10471000D8A08DEF23F08FEF23F093EF23F010500C
:104720000E5E11500F5AD89011321032122E84EFB3
:1047300023F01350D8B49FEF23F0A1EF23F0A5EF9F
:1047400023F00E6C0F1ED8B00F2A0EC00EF00FC053
:104750000FF012002906D9EF23F026C021F027C060
:1047600022F02950800F236E97EC25F0F6EF23F00E
:1047700026C021F027C022F02950C00F236E97ECED
:1047800025F0F6EF23F026C021F027C022F02950B3
:10479000940F236E97EC25F0F6EF23F026C021F05E
:1047A00027C022F02950D40F236E97EC25F0F6EFA6
:1047B00023F028502A6E2B6A2B50000AD8B4E3EF5E
:1047C00023F0F6EF23F02A50010AD8B4ADEF23F01E
:1047D000030AD8B4B8EF23F0010AD8B4C3EF23F02A
:1047E000070AD8B4CEEF23F0F6EF23F012001950E9
:1047F0001A10D8A4FEEF23F000EF24F006EF24F007
:10480000000E1D6E000E1C6E3BEF24F0D7C01EF094
:1048100019C0D9FF1AC0DAFFDF50070B1B6E1E50FC
:104820001B18F80B1B181E6E19C0D9FF1AC0DAFF2F
:10483000DF30E832E832070B1B6E1B461B461B4677
:104840001E501B18C70B1B181E6E1E9C19C0D9FFCB
:104850001AC0DAFFDFAC02D01E8E01D01E9E1E0EE3
:104860000E6E000E0F6E010E106E7BEC1CF00EC073
:104870001CF00FC01DF01CC019F01DC01AF0120072
:1048800019501A10D8A447EF24F049EF24F04FEF45
:1048900024F0000E1D6E000E1C6E84EF24F0D6C0B6
:1048A0001EF019C0D9FF1AC0DAFFDF50070B1B6ECC
:1048B0001E501B18F80B1B181E6E19C0D9FF1AC00A
:1048C000DAFFDF30E832E832070B1B6E1B461B466F
:1048D0001B461E501B18C70B1B181E6E1E9C19C0B2
:1048E000D9FF1AC0DAFFDFAC02D01E8E01D01E9EA7
:1048F0001E0E0E6E000E0F6E000E106E7BEC1CF086
:104900000EC01CF00FC01DF01CC019F01DC01AF025
:1049100012007A0EF66E540EF76E000EF86E01EE6F
:104920003FF010EE2DF00900F5CFEEFFE550E1501D
:10493000FAE1CE0EF66E540EF76E000EF86E00EE33
:10494000E1F010EE1EF00900F5CFEEFFE550E1506A
:10495000FAE19A0EF66E550EF76E000EF86E00EE46
:1049600064F010EE07F00900F5CFEEFFE550E150DE
:10497000FAE101EE00F03F0EEE6AE806FDE100EE1E
:1049800080F0610EEE6AE806FDE1706A6F6A6E6A99
:104990006D6A6C6A6B6A7190719200017CEF08F02D
:1049A0001D501E10D8A4D7EF24F0D9EF24F0DFEF6C
:1049B00024F0000E216E000E206E12EF25F0D8C0FC
:1049C00022F01DC0D9FF1EC0DAFFDF50070B1F6E9B
:1049D00022501F18F80B1F18226E1DC0D9FF1EC0D1
:1049E000DAFFDF30E832E832070B1F6E1F461F4642
:1049F0001F4622501F18C70B1F18226E229C1DC075
:104A0000D9FF1EC0DAFFDFAC02D0228E01D0229E79
:104A1000220E196E000E1A6E50EC27F019C020F00D
:104A20001AC021F020C01DF021C01EF012001D5040
:104A30001E10D8A41EEF25F020EF25F026EF25F05C
:104A4000000E226E000E216E55EF25F0000E236E33
:104A5000000E236E23501D24196E000E1E201A6EA8
:104A600050EC27F019C021F01AC022F023501D2469
:104A70001F6E000E1E20206E040E1F24196E000EE5
:104A800020201A6E50EC27F019C021F01AC022F035
:104A9000232A030E23644FEF25F051EF25F02AEF70
:104AA00025F0000E226E010E216E21C01DF022C0E5
:104AB0001EF0120021502210D8A461EF25F063EF00
:104AC00025F069EF25F0000E256E000E246E92EFA2
:104AD00025F021C00EF022C00FF0010E106E7BEC0D
:104AE0001CF00EC024F00FC025F021C019F022C028
:104AF0001AF023380F0B1B6E07EC28F021C019F0B9
:104B000022C01AF00BEC2AF021C019F022C01AF0D2
:104B100023C01BF007EC28F021C019F022C01AF0C6
:104B20000BEC2AF024C021F025C022F01200215005
:104B30002210D8A49EEF25F0A0EF25F0A6EF25F0D7
:104B4000000E256E000E246ECFEF25F021C00EF072
:104B500022C00FF0000E106E7BEC1CF00EC024F093
:104B60000FC025F021C019F022C01AF023380F0B16
:104B70001B6E07EC28F021C019F022C01AF00BECD4
:104B80002AF021C019F022C01AF023C01BF007EC54
:104B900028F021C019F022C01AF00BEC2AF024C032
:104BA00021F025C022F0120023BED9EF25F0DBEF63
:104BB00025F0E1EF25F022C027F023C028F0E5EF33
:104BC00025F0000E286E000E276E000E266E000ED9
:104BD000256EF7EF25F0000E0F6E200E0E6E1EC034
:104BE00010F01FC011F010EC21F0254A262A2750A2
:104BF000255C2650800A246E2850800A2458D8A0AC
:104C000004EF26F006EF26F0EBEF25F020C017F0BA
:104C100021C018F01EC019F01FC01AF090EC29F046
:104C20001200000E1A6E000E196E16501710D8B42E
:104C30001CEF26F01EEF26F046EF26F0010E186E50
:104C400026EF26F0D89016361736182A17AE2BEF17
:104C500026F02DEF26F022EF26F0D89019361A36DE
:104C60001650145C17501558D8A039EF26F03BEFBA
:104C700026F040EF26F01650145E1750155A198092
:104C8000D89017321632182E2DEF26F019C014F0D6
:104C90001AC015F01200000E136E010E126E040EF3
:104CA0000F5CD8A056EF26F058EF26F05EEF26F006
:104CB000000E136E000E126E7FEF26F0000EF2BE95
:104CC000010E116E0F50030BAA6E0EC0A9FF10C08B
:104CD000A8FFA69EA69CA684F29E550EA76EAA0EBD
:104CE000A76EA682A6B277EF26F079EF26F072EFD4
:104CF00026F0A69411B002D0F29E01D0F28E12C01E
:104D00000EF013C00FF012002C502D10D8B48BEF02
:104D100026F08DEF26F096EF26F030503110D8A413
:104D200094EF26F096EF26F09CEF26F0000E336EFF
:104D3000000E326EB4EF26F02CC026F02DC027F006
:104D40002EC028F02FC029F0AAEC23F02CC026F0AA
:104D50002DC027F030C028F031C029F0FAEC22F045
:104D600026C032F027C033F032C02CF033C02DF013
:104D700012006E50D8A4BFEF26F0C1EF26F0D3EF9B
:104D800026F0F10E016E000E026EDB0E036E000EB9
:104D9000046E5BEC1FF001C07AF102C07BF1010EE2
:104DA0006E6EEBEF26F06E04D8A4D9EF26F0DBEFA1
:104DB00026F0EBEF26F0F10E016E000E026ED90E1A
:104DC000036E000E046E5BEC1FF001C07AF102C0AE
:104DD0007BF1000E6E6E120019501A10D8A4F3EF7A
:104DE00026F0F5EF26F0FBEF26F0000E1C6E000E0D
:104DF0001B6E19EF27F019C00EF01AC00FF0010E4C
:104E0000106E7BEC1CF00EC01BF00FC01CF0010EEE
:104E100019240E6E000E1A200F6E000E106E7BEC21
:104E20001CF00EC01BF00FC01CF0000E1C6E010E1B
:104E30001B6E1BC019F01CC01AF0120019501A107A
:104E4000D8A425EF27F027EF27F02DEF27F0000E4D
:104E50001C6E000E1B6E4BEF27F019C00EF01AC02F
:104E60000FF0000E106E7BEC1CF00EC01BF00FC09C
:104E70001CF0010E19240E6E000E1A200F6E000E8B
:104E8000106E7BEC1CF00EC01BF00FC01CF0000E6F
:104E90001C6E010E1B6E1BC019F01CC01AF0120014
:104EA00019501A10D8A457EF27F059EF27F05FEFE9
:104EB00027F0000E1C6E000E1B6E7BEF27F019C052
:104EC0000EF01AC00FF0D2EC1BF00EC01BF00FC09A
:104ED0001CF019C00EF01AC00FF019C0D9FF1AC08B
:104EE000DAFF000EDFBE010E106E7BEC1CF00EC070
:104EF0001BF00FC01CF01BC019F01CC01AF01200F0
:104F00001D501E10D8A487EF27F089EF27F08FEFF0
:104F100027F0000E206E000E1F6EA9EF27F01DC0B7
:104F200019F01EC01AF050EC27F019C01FF01AC07B
:104F300020F0010E1D24196E000E1E201A6E50EC7A
:104F400027F019C01FF01AC020F0000E206E010ECD
:104F50001F6E1FC01DF020C01EF01200000E546E08
:104F6000010E536E51505210D8A4B9EF27F0BBEF89
:104F700027F0C1EF27F0000E546E000E536ED7EFEE
:104F800027F0AB9E51C045F052C046F096EC0EF0B3
:104F900051C00EF052C00FF0A0EC22F051C00EF044
:104FA00052C00FF0D2EC1FF0948E948CAB8E53C095
:104FB00051F054C052F01200D2EC29F0F10E116EF3
:104FC000000E126EA9EC20F011C07AF112C07BF134
:104FD000F10E116E000E126EA9EC20F011C07AF1E4
:104FE00012C07BF1680E0E6E000E0F6ED2EC1BF03D
:104FF0000EC07AF10FC07BF15D0E516E010E526E44
:10500000AEEC27F051C07AF152C07BF11200000ED5
:10501000206E000E206E205019241C6E000E1A20E7
:105020001D6E020E1C240E6E000E1D200F6E20C081
:105030001EF01BC01FF01E2A20EF28F0D8901F3250
:105040001E2E1EEF28F01F50010B106E7BEC1CF083
:10505000202A030E20642FEF28F031EF28F00BEF09
:1050600028F01200000E326E010E316E2C502D1001
:10507000D8A43DEF28F03FEF28F045EF28F0000ED0
:10508000326E000E316E57EF28F02CC026F02DC086
:1050900027F02EC028F02FC029F0AAEC23F02CC056
:1050A00021F02DC022F030C023F05AEC25F031C0A1
:1050B0002CF032C02DF01200000E166E010E156E8F
:1050C00011501210D8A467EF28F069EF28F06FEFA5
:1050D00028F0000E166E000E156E81EF28F013C03A
:1050E00014F014461446C2501418C30B1418C26EA0
:1050F00020EE02F01150D9261250DA22DF5040EC97
:1051000020F015C011F016C012F0120046C04AF08F
:1051100047C04BF09AEF28F044C036F045C037F056
:105120004A0E386E000E396E48C03AF049C03BF066
:10513000BFEC1DF04AC0F6FF4BC0F7FFF86A08004D
:10514000F5500009D8A4A7EF28F0A9EF28F08CEFBC
:1051500028F0000E456E000E446E1200000E136E15
:10516000010E126E10501110D8A4B9EF28F0BBEF49
:1051700028F0C1EF28F0000E136E000E126ED1EF72
:1051800028F00F50030BAA6E0EC0A9FFA69EA69C86
:10519000A68000F000F010C0D9FF11C0DAFFA8CF40
:1051A000DFFF12C00EF013C00FF01200000E166EDB
:1051B000000E156E000E166E000E156EF1EF28F043
:1051C00015500F24136E16501020146E13C0F6FFE6
:1051D00014C0F7FFF86A0800F550AAEC2AF0154A47
:1051E000162A1150155C12501658D8A0FAEF28F064
:1051F000FCEF28F0E0EF28F01200500E526E000E87
:10520000536E4CC054F04DC055F0000E586E000E59
:10521000576E000E5F6E000E5E6E540E446E000EF2
:10522000456E4EC046F04FC047F0520E486E000E1D
:10523000496E86EC28F057504C24D96E58504D20BA
:10524000DA6EDF6A120017501810D8A42AEF29F07E
:105250002CEF29F032EF29F0000E1B6E000E1A6EB3
:1052600044EF29F017C011F018C012F019C013F064
:105270005CEC28F017C00EF018C00FF024EC2AF0F8
:105280000EC01AF00FC01BF01AC017F01BC018F0A8
:10529000120020EE05F00E50D9260F50DA22DFA0C2
:1052A00054EF29F056EF29F05AEF29F0C188C18A4E
:1052B0006DEF29F020EE05F00E50D9260F50DA22BE
:1052C000DFB065EF29F067EF29F06BEF29F0C198A7
:1052D000C19A6DEF29F0C188C18A120020EE05F055
:1052E0000E50D9260F50DA22DFA279EF29F07BEF9A
:1052F00029F07EEF29F0C08E8FEF29F020EE05F027
:105300000E50D9260F50DA22DFB289EF29F08BEF49
:1053100029F08EEF29F0C09E8FEF29F0C08E120089
:10532000000E1D6E000E1C6EA1EF29F01BC00EF0CA
:105330000F6A19C010F01AC011F010EC21F01C4ACD
:105340001D2A1C501724D96E1D501820DA6EDF500C
:105350001B6E1B50D8A4AFEF29F0B1EF29F096EFE8
:1053600029F0120015BEBFEF29F0155006E1140414
:10537000D8B0BDEF29F0BFEF29F0CDEF29F014C070
:1053800016F015C017F0161E171E164A172A16C05B
:1053900014F017C015F0D1EF29F014C014F015C0A7
:1053A00015F012006A0E1D6E000E1E6ED0EC24F079
:1053B000690E1D6E000E1E6ED0EC24F0F70E266EE8
:1053C000000E276E1EEC1DF0E90E1D6E000E1E6E07
:1053D00017EC25F0FD0E1D6E000E1E6E80EC27F002
:1053E00012009E9C0001CC51CD11D8A4FAEF29F0F7
:1053F000FCEF29F0FEEF29F00AEF2AF002D80AEFBD
:105400002AF00500FA6ECC51FD6ECD51FE6EFF6A9A
:10541000FA5012001200010E19240E6E000E1A200E
:105420000F6E010E106E7BEC1CF0030EE82EFED703
:1054300000F0010E19240E6E000E1A200F6E000EE1
:10544000106E7BEC1CF01200000E116E010E106E3F
:105450000E500F10D8A42FEF2AF031EF2AF037EFBB
:105460002AF0000E116E000E106E38EF2AF0C28284
:1054700010C00EF011C00FF01200800F810F820FCC
:10548000830F840F890F8A0F8B0F8C0F8D0F920F54
:10549000930F940F950F960F802500036000000076
:0754A0000000000000000005
:1054A8000E501002F3CF12F0F4CF13F00E50110289
:1054B800F35013260F501002F350132612C00EF0AB
:1054C80013C00FF0120001685A622A1A622A030BED
:1054D800131B636B737B724D00050502020A121AD7
:1054E800222A1018016EF2900150D8A47EEF2AF0FB
:1054F80080EF2AF082EF2AF082EF2AF01200016E84
:10550800F2900150D8A48BEF2AF08DEF2AF08FEF9C
:105518002AF08FEF2AF01200016EF2900150D8A401
:1055280098EF2AF09AEF2AF09CEF2AF09CEF2AF0E5
:105538001200016EF2900150D8A4A5EF2AF0A7EF4F
:105548002AF0A9EF2AF0A9EF2AF012000E6EACA2F9
:10555800B0EF2AF0B2EF2AF0ABEF2AF09D880EC028
:10556800ADFF1200A19200019751B36E96C0B2FF31
:10557800120000019F51CF6E9EC0CEFF12000001A5
:10558800A351D76EA2C0D6FF12009E929AC0CCFF3C
:09559800120001010101110901D9
:1055A2009D9812009E9612009E961200A1961200DD
:1055B200F0921200F0901200F29212009E941200E9
:0C55C200A19012009E9412001200120032
:020000040020DA
:08000000FFFFFFFFFFFFFFFF00
:020000040030CA
:0E000000FF02091EFF8381FF0FC00FE00F40BB
:00000001FF
