:0400000007EF00F016
:0A000800718295ED13F0B1EF24F0C2
:10100000003738392F3435362A3132332D40303DD0
:101010002B707265737320272B2720746F207265E5
:101020007374617274207468652070726F67726186
:101030006D006D657373616765203A20666972653E
:1010400020666F756E6421212121210D0073756367
:101050006365737366756C6C7920616464656400A4
:10106000323A456E74657220457869737420506118
:10107000737300313A456E746572204E6577205067
:101080006173733A0057726F6E6720706173737784
:101090006F7264212100313A456E746572204E658D
:1010A0007720506173730054656D7065726174755B
:1010B0007265203A200053797374656D206973203E
:1010C00046696E6500546F204669726520537973D6
:1010D00074656D0046697265212121210057656C98
:1010E000636F6D6500737563636573730048656155
:1010F000742121002569000004EC28F0F70E2C6E05
:10110000000E2D6E010E2E6E070E2F6EDD0E306E50
:10111000100E316EACEC26F02CC07AF12DC07BF1B4
:10112000F70E2C6E000E2D6E020E2E6E030E2F6E1D
:10113000C50E306E100E316EACEC26F02CC07AF17C
:101140002DC07BF10B0E0101766F260E756F5D0EC3
:10115000E82EFED7752FFCD7762FFAD700D0F70EE2
:101160002C6E000E2D6E010E2E6E010E2F6E960E41
:10117000306E100E316EACEC26F02CC07AF12DC022
:101180007BF1F70E2C6E000E2D6E020E2E6E010EF0
:101190002F6E600E306E100E316EACEC26F02CC04F
:1011A0007AF12DC07BF16E50D8A4D9EF08F0DBEFB7
:1011B00008F0E9EF08F0F10E176E000E186E000E41
:1011C000196E4BEC29F017C07AF118C07BF1FDEFD6
:1011D00008F06E04D8A4EFEF08F0F1EF08F0FDEF8F
:1011E00008F0F10E176E000E186E010E196E4BEC22
:1011F00029F017C07AF118C07BF1F60E206E280E88
:10120000216E9C0E226E400E236EDBC00EF0DCC001
:101210000FF0106A116A000E9AEC19F00EC01CF063
:101220000FC01DF010C01EF011C01FF0B8EC15F07B
:101230001CC035F01DC036F01EC037F01FC038F09E
:101240007DEC1EF035C06BF036C06CF0F60E206EF3
:10125000280E216E9C0E226E400E236ED9C00EF019
:10126000DAC00FF0106A116A000E9AEC19F00EC085
:101270001CF00FC01DF010C01EF011C01FF0B8EC24
:1012800015F01CC035F01DC036F01EC037F01FC071
:1012900038F07DEC1EF035C08CF036C08DF06BC0A0
:1012A00014F06CC015F0000E176E0A0E166E39ECB5
:1012B00026F014C06BF015C06CF08CC014F08DC01B
:1012C00015F0000E176E0A0E166E39EC26F014C0DB
:1012D0008CF015C08DF08CC00EF08DC00FF0000E9C
:1012E000116E640E106E7CEC2AF00EC014F00FC06C
:1012F00015F0010E176EF40E166E39EC26F0145030
:101300006D6E6BC060F06CC061F0380E626E010EE5
:10131000636E02EC22F060C07AF161C07BF16DC0B7
:1013200060F0616A310E626E010E636E02EC22F0B3
:1013300060C07AF161C07BF1000E0101776F000E91
:10134000786F000E796FE90E1A6E000E1B6E700E2C
:101350001C6E000E1D6E00EC1FF01AC07AF11BC04F
:101360007BF17050D8B4B7EF09F0B9EF09F004EF92
:101370000DF0000E0F6E100E0E6EDD0E106E000ED4
:10138000116ED6EC28F00EC07AF10FC07BF12D0E55
:101390007018D8A4CEEF09F0D0EF09F0EAEF09F009
:1013A000000E706EF70E216E000E226E200E236E60
:1013B00082EC25F021C07AF122C07BF1F70E216E7C
:1013C000000E226E100E236EBFEC25F021C07AF1C4
:1013D00022C07BF12B0E7018D8A4F1EF09F0F3EFC7
:1013E00009F033EF0AF0040E0101766F0C0E756FF1
:1013F000330EE82EFED7752FFCD7762FFAD700D004
:10140000000E706E000E0001D16FFD0E196E000E01
:101410001A6E46EC27F019C07AF11AC07BF16A0EF9
:10142000196E000E1A6E68EC24F019C07AF11AC019
:101430007BF1680E0E6E000E0F6E000E106EA3ECA8
:101440001CF00EC07AF10FC07BF1F70E216E000E7A
:10145000226E010E236EBFEC25F021C07AF122C06E
:101460007BF1BCEF0EF0310E7018D8A43AEF0AF001
:101470003CEF0AF06CEF0BF0030E0001DD6143EF6F
:101480000AF045EF0AF06CEF0BF0060E0101766FE3
:10149000130E756FAD0EE82EFED7752FFCD7762F85
:1014A000FAD700D0000E0F6E100E0E6EE1C010F0D5
:1014B00073EC26F00EC07AF10FC07BF10001E12B36
:1014C000F70E216E000E226E010E236EBFEC25F08A
:1014D00021C07AF122C07BF1F70E2C6E000E2D6E2A
:1014E000010E2E6E010E2F6E730E306E100E316EC9
:1014F000ACEC26F02CC07AF12DC07BF1060E010178
:10150000766F130E756FAD0EE82EFED7752FFCD7D4
:10151000762FFAD700D0E90E1A6E000E1B6E770EEA
:101520001C6E010E1D6E00EC1FF01AC07AF11BC07C
:101530007BF101017751D8B4A0EF0AF0A2EF0AF0D5
:101540008BEF0AF0F70E2C6E000E2D6E020E2E6E33
:10155000010E2F6E77C130F05AEC28F02CC07AF1D2
:101560002DC07BF16FC00EF00F6A77C110F073ECE5
:1015700026F00EC07AF10FC07BF16F2A040E010134
:10158000766F0C0E756F330EE82EFED7752FFCD7D5
:10159000762FFAD700D0E90E1A6E000E1B6E780E69
:1015A0001C6E010E1D6E00EC1FF01AC07AF11BC0FC
:1015B0007BF101017851D8B4E0EF0AF0E2EF0AF0D4
:1015C000CBEF0AF0F70E2C6E000E2D6E020E2E6E73
:1015D000020E2F6E78C130F05AEC28F02CC07AF150
:1015E0002DC07BF16FC00EF00F6A78C110F073EC64
:1015F00026F00EC07AF10FC07BF16F2A040E0101B4
:10160000766F0C0E756F330EE82EFED7752FFCD754
:10161000762FFAD700D0E90E1A6E000E1B6E790EE7
:101620001C6E010E1D6E00EC1FF01AC07AF11BC07B
:101630007BF101017951D8B420EF0BF022EF0BF0D0
:101640000BEF0BF0F70E2C6E000E2D6E020E2E6EB1
:10165000030E2F6E79C130F05AEC28F02CC07AF1CD
:101660002DC07BF16FC00EF00F6A79C110F073ECE2
:1016700026F00EC07AF10FC07BF1060E0101766FE5
:10168000130E756FAD0EE82EFED7752FFCD7762F93
:10169000FAD700D0F70E216E000E226E010E236ED7
:1016A000BFEC25F021C07AF122C07BF1F70E2C6E41
:1016B000000E2D6E030E2E6E010E2F6E4D0E306E2F
:1016C000100E316EACEC26F02CC07AF12DC07BF1FF
:1016D000000E706E04EF0DF0320E7018D8A473EF88
:1016E0000BF075EF0BF004EF0DF0040E0101766FB7
:1016F0000C0E756F330EE82EFED7752FFCD7762FA4
:10170000FAD700D0F70E216E000E226E010E236E66
:10171000BFEC25F021C07AF122C07BF1F70E2C6ED0
:10172000000E2D6E010E2E6E010E2F6E600E306EAD
:10173000100E316EACEC26F02CC07AF12DC07BF18E
:10174000050E0101766F0F0E756FF10EE82EFED7B4
:10175000752FFCD7762FFAD7E90E1A6E000E1B6E86
:10176000770E1C6E010E1D6E00EC1FF01AC07AF190
:101770001BC07BF101017751D8B4C1EF0BF0C3EF6F
:101780000BF0ACEF0BF0F70E2C6E000E2D6E020E70
:101790002E6E010E2F6E77C130F05AEC28F02CC05F
:1017A0007AF12DC07BF1050E0101766F0F0E756F7A
:1017B000F10EE82EFED7752FFCD7762FFAD7E90E5B
:1017C0001A6E000E1B6E780E1C6E010E1D6E00EC64
:1017D0001FF01AC07AF11BC07BF101017851D8B417
:1017E000F4EF0BF0F6EF0BF0DFEF0BF0F70E2C6ED3
:1017F000000E2D6E020E2E6E020E2F6E78C130F08E
:101800005AEC28F02CC07AF12DC07BF1050E0101B5
:10181000766F0F0E756FF10EE82EFED7752FFCD781
:10182000762FFAD7E90E1A6E000E1B6E790E1C6E1B
:10183000010E1D6E00EC1FF01AC07AF11BC07BF187
:1018400001017951D8B427EF0CF029EF0CF012EF19
:101850000CF0F70E2C6E000E2D6E020E2E6E030E87
:101860002F6E79C130F05AEC28F02CC07AF12DC0DF
:101870007BF1050E0101766F0F0E756FF10EE82EEC
:10188000FED7752FFCD7762FFAD7000E6F6E6FC07C
:101890000EF00F6AE00E106E000E116ED6EC28F0FE
:1018A0000EC07AF10FC07BF1010E6F240E6E0F6A2D
:1018B000000E0F22DF0E106E000E116ED6EC28F017
:1018C0000EC07AF10FC07BF1020E6F240E6E0F6A0C
:1018D000000E0F22DE0E106E000E116ED6EC28F0F8
:1018E0000EC07AF10FC07BF1010177510001E019C0
:1018F000D8B47DEF0CF07FEF0CF096EF0CF0F70E04
:101900002C6E000E2D6E030E2E6E010E2F6E850EA8
:10191000306E100E316EACEC26F02CC07AF12DC07A
:101920007BF1000E0001D16F68EF0BF001017851DF
:101930000001DF19D8B49FEF0CF0A1EF0CF0B5EF68
:101940000CF0F70E2C6E000E2D6E030E2E6E010E97
:101950002F6E850E306E100E316EACEC26F02CC062
:101960007AF12DC07BF191EF0CF00101795100016A
:10197000DE19D8B4BEEF0CF0C0EF0CF0D4EF0CF0D1
:10198000F70E2C6E000E2D6E030E2E6E010E2F6EB6
:10199000850E306E100E316EACEC26F02CC07AF154
:1019A0002DC07BF191EF0CF0F70E2C6E000E2D6E1A
:1019B000030E2E6E010E2F6EE50E306E100E316E80
:1019C000ACEC26F02CC07AF12DC07BF1060E0101A3
:1019D000766F130E756FAD0EE82EFED7752FFCD700
:1019E000762FFAD700D0F70E216E000E226E010E70
:1019F000236EBFEC25F021C07AF122C07BF1010EED
:101A00000001D16F68EF0BF00001D105D8A40BEFF6
:101A10000DF00DEF0DF0D3EF08F0320E6D6013EF07
:101A20000DF015EF0DF016EF0EF06C5007E1320ED1
:101A30006B5CD8B01EEF0DF020EF0DF08BEF0DF0CA
:101A4000F70E216E000E226E010E236EBFEC25F004
:101A500021C07AF122C07BF1F70E2C6E000E2D6EA4
:101A6000010E2E6E010E2F6EB60E306E100E316E00
:101A7000ACEC26F02CC07AF12DC07BF1F70E2C6E69
:101A8000000E2D6E020E2E6E010E2F6EA70E306E02
:101A9000100E316EACEC26F02CC07AF12DC07BF12B
:101AA000F70E2C6E000E2D6E020E2E6E0F0E2F6E88
:101AB000380E306E010E316EACEC26F02CC07AF18F
:101AC0002DC07BF1F70E2C6E000E2D6E020E2E6EC9
:101AD000110E2F6E630E306E5AEC28F02CC07AF186
:101AE0002DC07BF1690E196E000E1A6E68EC24F0A1
:101AF00019C07AF11AC07BF1060E0101766F130E40
:101B0000756FAD0EE82EFED7752FFCD7762FFAD75E
:101B100000D0F4EF0DF06C5009E1320E6B5CD8A0F0
:101B200094EF0DF096EF0DF0F4EF0DF0F70E216E3F
:101B3000000E226E010E236EBFEC25F021C07AF15B
:101B400022C07BF1F70E2C6E000E2D6E010E2E6E54
:101B5000010E2F6EED0E306E100E316EACEC26F0D5
:101B60002CC07AF12DC07BF1F70E2C6E000E2D6E7D
:101B7000020E2E6E010E2F6EA70E306E100E316EFD
:101B8000ACEC26F02CC07AF12DC07BF1F70E2C6E58
:101B9000000E2D6E020E2E6E0F0E2F6E380E306E52
:101BA000010E316EACEC26F02CC07AF12DC07BF129
:101BB000F70E2C6E000E2D6E020E2E6E110E2F6E75
:101BC000630E306E5AEC28F02CC07AF12DC07BF1F8
:101BD000690E196E000E1A6E1FEC24F019C07AF10E
:101BE0001AC07BF17CEF0DF0FD0E196E000E1A6E1F
:101BF00046EC27F019C07AF11AC07BF16A0E196E13
:101C0000000E1A6E68EC24F019C07AF11AC07BF14C
:101C1000680E0E6E000E0F6E000E106EA3EC1CF020
:101C20000EC07AF10FC07BF1D3EF08F06C5009E1E0
:101C3000320E6B5CD8A01FEF0EF021EF0EF0BAEF62
:101C40000EF0320E6D6427EF0EF029EF0EF0BAEFB2
:101C50000EF0F70E216E000E226E010E236EBFEC09
:101C600025F021C07AF122C07BF1F70E2C6E000E18
:101C70002D6E010E2E6E010E2F6ED40E306E100ED4
:101C8000316EACEC26F02CC07AF12DC07BF1F70E52
:101C90002C6E000E2D6E040E2E6E010E2F6E110E88
:101CA000306E100E316EACEC26F02CC07AF12DC0E7
:101CB0007BF1FD0E196E000E1A6E14EC27F019C0A0
:101CC0007AF11AC07BF16A0E196E000E1A6E1FECC3
:101CD00024F019C07AF11AC07BF1680E0E6E000E66
:101CE0000F6E010E106EA3EC1CF00EC07AF10FC047
:101CF0007BF1690E196E000E1A6E68EC24F019C0A3
:101D00007AF11AC07BF1E90E1A6E000E1B6E700E8E
:101D10001C6E000E1D6E00EC1FF01AC07AF11BC085
:101D20007BF10001D051D8A498EF0EF09AEF0EF09D
:101D3000ABEF0EF0320E0F6E100E106E000E126E24
:101D40001A0E116EFEEC28F00FC07AF110C07BF174
:101D5000010E0001D06F060E0101766F130E756F34
:101D6000AD0EE82EFED7752FFCD7762FFAD700D010
:101D7000D3EF08F0D3EF08F007EF00F0000E496E44
:101D8000000E4A6E000E4B6E000E4C6EEEEF10F021
:101D9000AC98B896AC9445C0D9FF46C0DAFFDECF08
:101DA00047F0DDCF48F047C00EF048C00FF0106A92
:101DB000116A000E9AEC19F00EC020F00FC021F04D
:101DC00010C022F011C023F0000E1C6E240E1D6EF8
:101DD000F40E1E6E4A0E1F6ECDEC17F01CC04DF0B7
:101DE0001DC04EF01EC04FF01FC050F0000E206E00
:101DF000000E216E800E226E420E236E4DC01CF02E
:101E00004EC01DF04FC01EF050C01FF0CDEC17F0BB
:101E10001CC035F01DC036F01EC037F01FC038F0B2
:101E2000000E396E000E3A6E800E3B6EBF0E3C6E99
:101E300035EC11F035C049F036C04AF037C04BF0F0
:101E400038C04CF019EF11F0AC98B896AC8445C08E
:101E5000D9FF46C0DAFFDECF47F0DDCF48F047C0FC
:101E60000EF048C00FF0106A116A000E9AEC19F0DB
:101E70000EC020F00FC021F010C022F011C023F0DE
:101E8000000E1C6E240E1D6EF40E1E6E4A0E1F6E8A
:101E9000CDEC17F01CC04DF01DC04EF01EC04FF031
:101EA0001FC050F0000E206E000E216E800E226EBC
:101EB000410E236E4DC01CF04EC01DF04FC01EF0F1
:101EC00050C01FF0CDEC17F01CC035F01DC036F02F
:101ED0001EC037F01FC038F0000E396E000E3A6E8B
:101EE000800E3B6EBF0E3C6E35EC11F035C049F0F4
:101EF00036C04AF037C04BF038C04CF019EF11F043
:101F0000AC98B886AC9445C0D9FF46C0DAFFDECFA6
:101F100047F0DDCF48F047C00EF048C00FF0106A20
:101F2000116A000E9AEC19F00EC020F00FC021F0DB
:101F300010C022F011C023F0000E1C6E240E1D6E86
:101F4000F40E1E6E4A0E1F6ECDEC17F01CC04DF045
:101F50001DC04EF01EC04FF01FC050F0000E206E8E
:101F6000000E216E800E226E410E236E4DC01CF0BD
:101F70004EC01DF04FC01EF050C01FF0CDEC17F04A
:101F80001CC035F01DC036F01EC037F01FC038F041
:101F9000000E396E000E3A6E800E3B6EBF0E3C6E28
:101FA00035EC11F035C049F036C04AF037C04BF07F
:101FB00038C04CF019EF11F0AC98B896AC8445C01D
:101FC000D9FF46C0DAFFDECF47F0DDCF48F047C08B
:101FD0000EF048C00FF0106A116A000E9AEC19F06A
:101FE0000EC020F00FC021F010C022F011C023F06D
:101FF000000E1C6E240E1D6EF40E1E6E4A0E1F6E19
:10200000CDEC17F01CC04DF01DC04EF01EC04FF0BF
:102010001FC050F0000E206E000E216E800E226E4A
:10202000400E236E4DC01CF04EC01DF04FC01EF080
:1020300050C01FF0CDEC17F01CC035F01DC036F0BD
:102040001EC037F01FC038F0000E396E000E3A6E19
:10205000800E3B6EBF0E3C6E35EC11F035C049F082
:1020600036C04AF037C04BF038C04CF019EF11F0D1
:10207000AC88B88645C0D9FF46C0DAFFDECF47F04E
:10208000DDCF48F047C00EF048C00FF0106A116A6B
:10209000000E9AEC19F00EC020F00FC021F010C015
:1020A00022F011C023F0000E1C6E240E1D6EF40EE3
:1020B0001E6E4A0E1F6ECDEC17F01CC04DF01DC0F9
:1020C0004EF01EC04FF01FC050F0000E206E000EEC
:1020D000216E800E226E400E236E4DC01CF04EC04D
:1020E0001DF04FC01EF050C01FF0CDEC17F01CC00B
:1020F00035F01DC036F01EC037F01FC038F0000E9E
:10210000396E000E3A6E800E3B6EBF0E3C6E35ECA3
:1021100011F035C049F036C04AF037C04BF038C036
:102120004CF019EF11F0AC88B89645C0D9FF46C005
:10213000DAFFDECF47F0DDCF48F047C00EF048C0F1
:102140000FF0106A116A000E9AEC19F00EC020F020
:102150000FC021F010C022F011C023F0000E1C6E41
:10216000240E1D6EF40E1E6E4A0E1F6ECDEC17F07F
:102170001CC04DF01DC04EF01EC04FF01FC050F0EF
:10218000000E206E000E216E800E226E400E236E19
:102190004DC01CF04EC01DF04FC01EF050C01FF0CF
:1021A000CDEC17F01CC035F01DC036F01EC037F066
:1021B0001FC038F0000E396E000E3A6E800E3B6E76
:1021C000BF0E3C6E35EC11F035C049F036C04AF018
:1021D00037C04BF038C04CF019EF11F020EE02F090
:1021E0004550D9264650DA22DF50476E486A48509B
:1021F000000AD8B4FEEF10F019EF11F04750000AB2
:10220000D8B4C8EF0EF0010AD8B424EF0FF0030AD7
:10221000D8B480EF0FF0010AD8B4DCEF0FF0070A52
:10222000D8B438EF10F0010AD8B493EF10F019EFDA
:1022300011F049C035F04AC036F04BC037F04CC001
:1022400038F07DEC1EF03550AF6E49C035F04AC015
:1022500036F04BC037F04CC038F07DEC1EF036C085
:1022600035F0366A3550B06E12003850800B416E32
:1022700038503824436E37AE40EF11F042EF11F082
:1022800043EF11F043804350D8B449EF11F04BEFC6
:1022900011F060EF11F04328D8A451EF11F053EF83
:1022A00011F05BEF11F0000E356E000E366E000E71
:1022B000376E000E386E378E000E386E68EF11F0F4
:1022C000000E356E000E366E000E376E000E386E44
:1022D0003C50800B426E41504218D8B472EF11F05E
:1022E00074EF11F075EF11F0418C3C503C24426EBC
:1022F0003BAE7DEF11F07FEF11F080EF11F04280E7
:102300004250D8B486EF11F088EF11F09DEF11F034
:102310004228D8A48EEF11F090EF11F098EF11F051
:10232000000E396E000E3A6E000E3B6E000E3C6ED3
:102330003B8E000E3C6EA5EF11F0000E396E000EC4
:102340003A6E000E3B6E000E3C6E4350425CD8B0BD
:10235000ACEF11F0AEEF11F0D5EF11F041ACB3EFEF
:1023600011F0B5EF11F0B7EF11F0800E411A43C034
:1023700044F042C043F044C042F035C044F039C09C
:1023800035F044C039F036C044F03AC036F044C0AD
:102390003AF037C044F03BC037F044C03BF038C09F
:1023A00044F03CC038F044C03CF0000E446E435052
:1023B00042C03DF03E6A3D5E000E3E5A3EBEEAEF30
:1023C00011F03E5009E11A0E3D5CD8A0EAEF11F081
:1023D000ECEF11F023EF12F03550361037103810B3
:1023E000D8A4F5EF11F0F8EF11F0010EF9EF11F0AC
:1023F000000E446E000E356E000E366E000E376E07
:10240000000E386E42C043F02CEF12F044A00BEFE8
:1024100012F00DEF12F013EF12F0D89044300109D2
:10242000446E15EF12F0D890443235A01AEF12F036
:102430001CEF12F01DEF12F0448E38343832373270
:1024400036323532432A4250435CD8A02AEF12F08C
:102450002CEF12F006EF12F041BC31EF12F033EF27
:1024600012F073EF12F04350D8A439EF12F03BEFA3
:1024700012F045EF12F0000E356E000E366E000EB3
:10248000376E000E386E94EF13F0395035263A50FF
:1024900036223B5037223C50382238A052EF12F0FF
:1024A00054EF12F000EF13F044A059EF12F05BEF7D
:1024B00012F061EF12F0D89044300109446E63EFDE
:1024C00012F0D890443235A068EF12F06AEF12F0A3
:1024D0006BEF12F0448E38343832373236323532C0
:1024E000432A00EF13F03950355C3A5036583B50D0
:1024F00037583850800A3D6E3C50800A3D58D8B05D
:1025000084EF12F086EF12F0B1EF12F03550395C23
:102510003D6E36503A583E6E37503B583F6E3850FD
:102520003C58406EFF0E3D24356EFF0E3E20366E49
:10253000FF0E3F20376EFF0E4020386E800E411A8E
:10254000446C4450D8A4A7EF12F0A9EF12F0B9EFF1
:1025500012F0010E3526000E362237223822B9EF4E
:1025600012F03950355E3A50365A3B50375A3C508B
:10257000385A3550361037103810D8A4C2EF12F040
:10258000C4EF12F0F9EF12F04450D8A4CAEF12F0E1
:10259000CCEF12F0F9EF12F0000E356E000E366E31
:1025A000000E376E000E386E94EF13F0D89035366B
:1025B00036363736383644AEE0EF12F0E2EF12F03E
:1025C000E3EF12F0358044A0E8EF12F0EAEF12F0EA
:1025D000EEEF12F0D8804436F0EF12F0D890443687
:1025E0004350D8B4F6EF12F0F8EF12F0F9EF12F012
:1025F000430637AEFEEF12F000EF13F0D6EF12F005
:10260000000E426E44AE07EF13F009EF13F021EF16
:1026100013F044C03DF07F0E3D16D8B412EF13F016
:1026200014EF13F018EF13F0010E426E21EF13F0C8
:1026300035A01DEF13F01FEF13F021EF13F014EF8F
:1026400013F04250D8B427EF13F029EF13F054EFF2
:1026500013F0010E3526000E36223722382238A01C
:1026600034EF13F036EF13F054EF13F035C03DF0B4
:1026700036C03EF037C03FF038C040F04034403202
:102680003F323E323D323DC035F03EC036F03FC0B5
:1026900037F040C038F04328D8B451EF13F053EF6F
:1026A00013F054EF13F0432A4328D8B45AEF13F031
:1026B0005CEF13F064EF13F04350D8A462EF13F013
:1026C00064EF13F076EF13F0000E356E000E366EE9
:1026D000000E376E000E386E4350D8A472EF13F020
:1026E00074EF13F076EF13F0000E416E43A07BEF12
:1026F00013F07DEF13F080EF13F0378E81EF13F0BE
:10270000379ED8904330386E41AE89EF13F08BEF8F
:1027100013F08CEF13F0388E35C035F036C036F03C
:1027200037C037F038C038F012000600FACF0AF090
:10273000FBCF0BF0D9CF0CF0DACF0DF0F2A8A3EF5E
:1027400013F0A5EF13F0AEEF13F0F2A2AAEF13F01F
:10275000ACEF13F0AEEF13F005EC2BF0F0A6B3EFF7
:1027600013F0B5EF13F0BEEF13F0F0A0BAEF13F0D3
:10277000BCEF13F0BEEF13F003EC2BF0F0A8C3EFA7
:1027800013F0C5EF13F0CEEF13F0F0A2CAEF13F081
:10279000CCEF13F0CEEF13F001EC2BF0F2A6D3EF59
:1027A00013F0D5EF13F0F0EF13F0F2A0DAEF13F01F
:1027B000DCEF13F0F0EF13F081A8E1EF13F0E3EF9B
:1027C00013F0F0EF13F06704D8A4E9EF13F0EBEF88
:1027D00013F0F0EF13F0000E676E000EC5EC2AF058
:1027E000F2A6F5EF13F0F7EF13F012EF14F0F2A0EA
:1027F000FCEF13F0FEEF13F012EF14F081BA03EFC9
:1028000014F005EF14F012EF14F06750D8A40BEF9A
:1028100014F00DEF14F012EF14F0010E676E010EBC
:10282000C5EC2AF0F2A617EF14F019EF14F034EF0C
:1028300014F0F2A01EEF14F020EF14F034EF14F0B7
:1028400081AA25EF14F027EF14F034EF14F066049A
:10285000D8A42DEF14F02FEF14F034EF14F0000E85
:10286000666E000EB8EC2AF0F2A639EF14F03BEFDA
:1028700014F056EF14F0F2A040EF14F042EF14F011
:1028800056EF14F081BA47EF14F049EF14F056EF09
:1028900014F06650D8A44FEF14F051EF14F056EF37
:1028A00014F0010E666E010EB8EC2AF0F2A65BEF92
:1028B00014F05DEF14F078EF14F0F2A062EF14F072
:1028C00064EF14F078EF14F081AC69EF14F06BEF63
:1028D00014F078EF14F06504D8A471EF14F073EFDE
:1028E00014F078EF14F0000E656E000EABEC2AF0D9
:1028F000F2A67DEF14F07FEF14F09AEF14F0F2A03F
:1029000084EF14F086EF14F09AEF14F081BC8BEF93
:1029100014F08DEF14F09AEF14F06550D8A493EFF3
:1029200014F095EF14F09AEF14F0010E656E010E9D
:10293000ABEC2AF0F2A69FEF14F0A1EF14F0BCEF7D
:1029400014F0F2A0A6EF14F0A8EF14F0BCEF14F00E
:1029500081AEADEF14F0AFEF14F0BCEF14F06404EF
:10296000D8A4B5EF14F0B7EF14F0BCEF14F0000EDC
:10297000646E000E9EEC2AF0F2A6C1EF14F0C3EFD5
:1029800014F0DEEF14F0F2A0C8EF14F0CAEF14F068
:10299000DEEF14F081BECFEF14F0D1EF14F0DEEFD4
:1029A00014F06450D8A4D7EF14F0D9EF14F0DEEF90
:1029B00014F0010E646E010E9EEC2AF09DACE3EF64
:1029C00014F0E5EF14F0EEEF14F09EACEAEF14F023
:1029D000ECEF14F0EEEF14F019EC2AF0F2AAF3EF9A
:1029E00014F0F5EF14F0FEEF14F0F2A4FAEF14F087
:1029F000FCEF14F0FEEF14F0EBEC2AF09DA003EFD7
:102A000015F005EF15F00EEF15F09EA00AEF15F08A
:102A10000CEF15F00EEF15F0E5EC2AF09DA213EF88
:102A200015F015EF15F01EEF15F09EA21AEF15F038
:102A30001CEF15F01EEF15F0F1EC2AF0A0A223EF29
:102A400015F025EF15F02EEF15F0A1A22AEF15F0E5
:102A50002CEF15F02EEF15F0DEEC2AF09DA433EFED
:102A600015F035EF15F03EEF15F09EA43AEF15F096
:102A70003CEF15F03EEF15F00BEC2BF0A0A043EF70
:102A800015F045EF15F04EEF15F0A1A04AEF15F047
:102A90004CEF15F04EEF15F009EC2BF09DA453EF21
:102AA00015F055EF15F05EEF15F09EA45AEF15F0F6
:102AB0005CEF15F05EEF15F007EC2BF09DA863EFCF
:102AC00015F065EF15F06EEF15F09EA86AEF15F0A2
:102AD0006CEF15F06EEF15F0F9EC2AF09DAA73EF8C
:102AE00015F075EF15F07EEF15F09EAA7AEF15F050
:102AF0007CEF15F07EEF15F00EEC2BF09DA683EF2A
:102B000015F085EF15F08EEF15F09EA68AEF15F003
:102B10008CEF15F08EEF15F0FBEC2AF09DA693EFED
:102B200015F095EF15F09EEF15F09EA69AEF15F0B3
:102B30009CEF15F09EEF15F0FDEC2AF0A0A6A3EF98
:102B400015F0A5EF15F0AEEF15F0A1A6AAEF15F060
:102B5000ACEF15F0AEEF15F0FFEC2AF00DC0DAFF88
:102B60000CC0D9FF0BC0FBFF0AC0FAFF7192110025
:102B70001F50800B286E1F501F242E6E1EAEC3EFF9
:102B800015F0C5EF15F0C6EF15F02E802E50D8B415
:102B9000CCEF15F0CEEF15F0E1EF15F02E28D8A40C
:102BA000D4EF15F0D6EF15F0DEEF15F0000E1C6E29
:102BB000000E1D6E000E1E6E000E1F6E1E8EE9EFC3
:102BC00015F0000E1C6E000E1D6E000E1E6E000E27
:102BD0001F6E2350800B281A23502324296E22AE07
:102BE000F4EF15F0F6EF15F0F7EF15F02980295006
:102BF000D8B4FDEF15F0FFEF15F012EF16F029280D
:102C0000D8A405EF16F007EF16F00FEF16F0000E40
:102C1000206E000E216E000E226E000E236E228E9C
:102C20001AEF16F0000E206E000E216E000E226EBE
:102C3000000E236E2950D8B420EF16F022EF16F0C4
:102C40002AEF16F02E50D8A428EF16F02AEF16F02F
:102C500034EF16F0000E1C6E000E1D6E000E1E6E80
:102C6000000E1F6ECCEF17F022501C02F3CF33F092
:102C7000F4CF34F033502A6E2B6A2C6A2D6A34500C
:102C80002F6E306A316A326A21501D02F3CF33F061
:102C9000F4CF34F033502A26000E2B222C222D2282
:102CA00034502F26000E30223122322220501E02B4
:102CB000F3CF33F0F4CF34F033502A26000E2B221A
:102CC0002C222D2234502F26000E30223122322287
:102CD0002CC02DF02BC02CF02AC02BF02A6A2050DB
:102CE0001D02F3CF33F0F4CF34F033502A263450A2
:102CF0002B22000E2C22000E2D2221501C02F3CF7D
:102D000033F0F4CF34F033502A2634502B22000E07
:102D10002C22000E2D222CC02DF02BC02CF02AC00E
:102D20002BF02A6A20501C02F3CF33F0F4CF34F09A
:102D300033502A2634502B22000E2C22000E2D2236
:102D400022501D02F3CF33F0F4CF34F033502F264E
:102D500034503022000E3122000E322221501E0249
:102D6000F3CF33F0F4CF34F033502F2634503022E9
:102D7000000E3122000E322222501E02F3CF33F019
:102D8000F4CF34F03350246E3450256E266A276A0F
:102D900026C027F025C026F024C025F0246A245040
:102DA0002F262550302226503122275032222AC089
:102DB00024F02BC025F02CC026F02DC027F0190ED2
:102DC000E7EF16F0D8902732263225322432E82E4B
:102DD000E2EF16F024502F262550302226503122C3
:102DE000275032222CC02DF02BC02CF02AC02BF003
:102DF0002A6A29502EC024F0256A2426000E252296
:102E0000820E2424336EFF0E2520346E1DEF17F042
:102E1000D8902F363036313632362DAE12EF17F0CD
:102E200014EF17F015EF17F02F80D8902A362B36B5
:102E30002C362D363306D8A0340631AE22EF17F0EB
:102E400024EF17F008EF17F0000E296E2DAE2BEFD0
:102E500017F02DEF17F051EF17F0FF0E2A14246E24
:102E6000FF0E2B14256EFF0E2C14266E7F0E2D14D4
:102E7000276E2450251026102710D8B442EF17F0E3
:102E800044EF17F048EF17F0010E296E51EF17F0DD
:102E90002FA04DEF17F04FEF17F051EF17F044EF61
:102EA00017F02950D8B457EF17F059EF17F07DEF0E
:102EB00017F0010E2F26000E30223122322232A0CE
:102EC00064EF17F066EF17F07DEF17F02FC024F0D6
:102ED00030C025F031C026F032C027F02734273229
:102EE00026322532243224C02FF025C030F026C0EF
:102EF00031F027C032F0334A342A34BE88EF17F05D
:102F0000345008E13328D8A088EF17F08AEF17F083
:102F100094EF17F0000E2F6E000E306E800E316EA3
:102F20007F0E326EC2EF17F034BEA1EF17F03450AF
:102F300006E13304D8B09FEF17F0A1EF17F0ADEF23
:102F400017F0000E2F6E000E306E000E316E000E68
:102F5000326E000E286EC2EF17F033C02EF0FF0E57
:102F60002F16FF0E30167F0E3116000E32162EA0D1
:102F7000BCEF17F0BEEF17F0BFEF17F0318ED8900F
:102F80002E30326E285032122FC01CF030C01DF08F
:102F900031C01EF032C01FF012001F50800B2C6E8B
:102FA0001F501F24336E1EAED8EF17F0DAEF17F064
:102FB000DBEF17F033803350D8B4E1EF17F0E3EFD5
:102FC00017F0F8EF17F03328D8A4E9EF17F0EBEF7C
:102FD00017F0F3EF17F0000E1C6E000E1D6E000EC2
:102FE0001E6E000E1F6E1E8E000E1F6E00EF18F07C
:102FF000000E1C6E000E1D6E000E1E6E000E1F6E6B
:103000002350800B2C1A23502324346E22AE0BEF56
:1030100018F00DEF18F00EEF18F034803450D8B4DB
:1030200014EF18F016EF18F02BEF18F03428D8A48E
:103030001CEF18F01EEF18F026EF18F0000E206EAF
:10304000000E216E000E226E000E236E228E000EE8
:10305000236E33EF18F0000E206E000E216E000E6E
:10306000226E000E236E2050211022102310D8A4AF
:103070003CEF18F03EEF18F056EF18F0000E1C6E03
:10308000000E1D6E000E1E6E000E1F6E800E1E12B4
:103090007F0E1F122C501F121CC01CF01DC01DF0F3
:1030A0001EC01EF01FC01FF099EF19F03350D8A4B6
:1030B0005CEF18F05EEF18F068EF18F0000E1C6E71
:1030C000000E1D6E000E1E6E000E1F6E99EF19F0A1
:1030D000345033C024F0256A245E000E255A7F0E3A
:1030E00024242D6E000E25202E6E1CC028F01DC03D
:1030F00029F01EC02AF01FC02BF0000E1C6E000E1F
:103100001D6E000E1E6E000E1F6E000E2F6E000E46
:10311000306E000E316E000E326E000E346EC9EF4E
:1031200018F03450D8B497EF18F099EF18F0B0EFCA
:1031300018F0D890283629362A362B36D8901C36E7
:103140001D361E361F3632AEA8EF18F0AAEF18F063
:10315000ABEF18F01C80D8902F363036313632362F
:103160002050285C2150295822502A5823502B588F
:10317000D8A0BDEF18F0BFEF18F0C8EF18F0328CF0
:103180002050285E2150295A22502A5A23502B5A67
:10319000342A190E3464CFEF18F0D1EF18F091EF04
:1031A00018F0285029102A102B10D8B4DAEF18F094
:1031B000DCEF18F0F4EF18F02F80F4EF18F0D8904F
:1031C0001C361D361E361F3632AEE9EF18F0EBEF17
:1031D00018F0ECEF18F01C80D8902F3630363136CE
:1031E00032362D06D8A02E061EAEF9EF18F0FBEFF2
:1031F00018F0DFEF18F0000E346E32AE02EF19F067
:1032000004EF19F028EF19F0FF0E2F14246EFF0EB3
:103210003014256EFF0E3114266E7F0E3214276E89
:103220002450251026102710D8B419EF19F01BEFE1
:1032300019F01FEF19F0010E346E28EF19F01CA0E1
:1032400024EF19F026EF19F028EF19F01BEF19F011
:103250003450D8B42EEF19F030EF19F054EF19F0C4
:10326000010E1C26000E1D221E221F221FA03BEF56
:1032700019F03DEF19F054EF19F01CC024F01DC0F7
:1032800025F01EC026F01FC027F027342732263233
:103290002532243224C01CF025C01DF026C01EF0AB
:1032A00027C01FF02D4A2E2A2EBE5FEF19F02E5098
:1032B00008E12D28D8A05FEF19F061EF19F06CEF4D
:1032C00019F0000E2E6E2D68000E1C6E000E1D6E85
:1032D000000E1E6E000E1F6E2EBE79EF19F02E50DE
:1032E00006E12D04D8B077EF19F079EF19F087EFE8
:1032F00019F0000E2E6E000E2D6E000E1C6E000ECC
:103300001D6E000E1E6E000E1F6E000E2C6E2DC068
:1033100033F033A08EEF19F090EF19F093EF19F01E
:103320001E8E94EF19F01E9ED89033301F6E4AEF18
:1033300018F01200166E1650D8B4A1EF19F0A3EFD2
:1033400019F0C5EF19F011BEAAEF19F0A8EF19F0A6
:10335000C5EF19F00EC012F00FC013F010C014F03A
:1033600011C015F0121E131E141E151E122A000E77
:1033700013221422152212C018F013C019F014C021
:103380001AF015C01BF0CDEF19F00EC018F00FC0E9
:1033900019F010C01AF011C01BF00E500F101010D1
:1033A0001110D8A4D6EF19F0D8EF19F0E2EF19F008
:1033B000000E0E6E000E0F6E000E106E000E116EDF
:1033C00073EF1AF0960E176EECEF19F0172AD890DB
:1033D0001B321A3219321832000E1814126E000EF7
:1033E0001914136E000E1A14146EFE0E1B14156EB3
:1033F0001250131014101510D8A401EF1AF003EF97
:103400001AF0E6EF19F011EF1AF0172A010E18263C
:10341000000E19221A221B22D8901B321A3219329E
:103420001832000E1814126E000E1914136E000ECE
:103430001A14146EFF0E1B14156E12501310141074
:103440001510D8A426EF1AF028EF1AF005EF1AF09D
:1034500030EF1AF01706D890183619361A361B3680
:103460001ABE35EF1AF037EF1AF03FEF1AF0020EDE
:1034700017603DEF1AF03FEF1AF02AEF1AF017B07D
:1034800044EF1AF046EF1AF047EF1AF01A9ED89060
:10349000173217C012F0136A146A156A12C015F0B9
:1034A000146A136A126A1250181213501912145027
:1034B0001A1215501B121650D8B461EF1AF063EFB0
:1034C0001AF06BEF1AF011BE6AEF1AF068EF1AF0FB
:1034D0006BEF1AF01B8E18C00EF019C00FF01AC057
:1034E00010F01BC011F012002CBE79EF1AF07CEF27
:1034F0001AF0010E7DEF1AF0000E336E3350D8B47F
:1035000084EF1AF086EF1AF08AEF1AF02B6C2C1E5B
:10351000D8B02C2A00018BBF92EF1AF090EF1AF06E
:1035200098EF1AF0000E306E010E2F6E9CEF1AF01D
:103530008AC02FF08BC030F088C031F089C032F0E3
:103540003350D8B4A6EF1AF0A8EF1AF0BFEF1AF074
:103550003106D8A032063350D8A4B1EF1AF0B3EF39
:103560001AF0B9EF1AF0000E2E6E2B0E2D6EBDEF75
:103570001AF0000E2E6E2D0E2D6E2DC033F0000EA3
:10358000356E1F0E346E000E0101306FF8EF1AF029
:103590003406D8A03506110E3424D96E010E35201C
:1035A000DA6E2BC00EF02CC00FF0000E116E0A0E5A
:1035B000106E7AEC23F00EC014F00FC015F0DAECA8
:1035C00029F01450300FDF6E2F06D8A030063106D8
:1035D000D8A032062BC00EF02CC00FF0000E116EDA
:1035E0000A0E106E66EC22F00EC02BF00FC02CF00D
:1035F00035BE03EF1BF0355008E13404D8A003EFCB
:103600001BF005EF1BF01BEF1BF02B502C10D8A468
:103610000CEF1BF00EEF1BF0C8EF1AF030BE1BEFE3
:103620001BF0305006E12F04D8B019EF1BF01BEF50
:103630001BF0C8EF1AF03350D8B421EF1BF023EF82
:103640001BF02EEF1BF03406D8A03506110E3424E3
:10365000D96E010E3520DA6E33C0DFFF29C01EF0AF
:103660002AC01FF0110E3424206E010E3520216E69
:1036700031C022F032C023F0FCEC25F012000EC065
:1036800018F00FC019F012501310D8A44AEF1BF015
:103690004CEF1BF04EEF1BF0F9EF1BF018C0D9FFF9
:1036A00019C0DAFF10C0DFFF12501824146E135037
:1036B0001920156EFF0E1424D96EFF0E1520DA6E38
:1036C00010C0DFFF135007E1030E125CD8B06BEFA0
:1036D0001BF06DEF1BF06FEF1BF0F9EF1BF020EE0E
:1036E00001F01850D9261950DA2210C0DFFF20EE61
:1036F00002F01850D9261950DA2210C0DFFF1250FC
:103700001824146E13501920156EFE0E1424D96E51
:10371000FF0E1520DA6E10C0DFFF12501824146E51
:1037200013501920156EFD0E1424D96EFF0E1520AE
:10373000DA6E10C0DFFF135007E1070E125CD8B03D
:10374000A4EF1BF0A6EF1BF0A8EF1BF0F9EF1BF0A6
:1037500020EE03F01850D9261950DA2210C0DFFFEE
:1037600012501824146E13501920156EFC0E1424D8
:10377000D96EFF0E1520DA6E10C0DFFF135007E17F
:10378000090E125CD8B0C7EF1BF0C9EF1BF0CBEFEE
:103790001BF0F9EF1BF018C014F019C015F0141E3F
:1037A000151E144A152A030E1414166E176A1650A5
:1037B0001826175019221650125E1750135AFC0E75
:1037C0001216FF0E1316F0EF1BF018C0D9FF19C028
:1037D000DAFF10C0DFFF1206D8A01306184A192A14
:1037E00012501310D8A4F7EF1BF0F9EF1BF0E5EF20
:1037F0001BF01200000E176E010E166E0E500F1009
:10380000D8B405EF1CF007EF1CF018EF1CF00EC049
:10381000D9FF0FC0DAFFDF30E832E832070B106E55
:10382000070E106416EF1CF018EF1CF07DEF1CF073
:10383000000E176E000E166E9EEF1CF00EC0D9FF24
:103840000FC0DAFFDF30E832E832070B106E010EEE
:10385000116E102A2EEF1CF0D8901136102E2CEF7E
:103860001CF01150FF0A126E0EC0D9FF0FC0DAFF14
:10387000DF50070B136E1350020D530EF324D96E55
:10388000010EF420DA6EDECF14F0DDCF15F014C097
:10389000D9FF15C0DAFF1250DF169EEF1CF00EC0E4
:1038A000D9FF0FC0DAFFDF30E832E832070B106EC5
:1038B000010E116E102A5FEF1CF0D8901136102EF9
:1038C0005DEF1CF00EC0D9FF0FC0DAFFDF50070B11
:1038D000126E1250020D530EF324D96E010EF42015
:1038E000DA6EDECF13F0DDCF14F013C0D9FF14C0B1
:1038F000DAFF1150DF129EEF1CF00EC0D9FF0FC08F
:10390000DAFFDFBC86EF1CF089EF1CF0010E8AEFB6
:103910001CF0000E106E116A1150000AD8B493EF1B
:103920001CF018EF1CF01050000AD8B41EEF1CF069
:10393000010AD8B44FEF1CF018EF1CF016C00EF0BF
:1039400017C00FF01200000E186E000E176E0E500A
:103950000F10D8B4AEEF1CF0B0EF1CF0C1EF1CF0AC
:103960000EC0D9FF0FC0DAFFDF30E832E832070BB4
:10397000116E070E1164BFEF1CF0C1EF1CF02CEFAD
:103980001DF0000E186E010E176E41EF1DF00EC0F7
:10399000D9FF0FC0DAFFDF30E832E832070B116ED3
:1039A000010E126E112AD7EF1CF0D8901236112E8C
:1039B000D5EF1CF01250FF0A136E0EC0D9FF0FC0D6
:1039C000DAFFDF50070B146E1450020D490EF3247A
:1039D000D96E010EF420DA6EDECF15F0DDCF16F0D1
:1039E00015C0D9FF16C0DAFF1350DF1641EF1DF0E6
:1039F0000EC0D9FF0FC0DAFFDF30E832E832070B24
:103A0000116E010E126E112A08EF1DF0D8901236B9
:103A1000112E06EF1DF00EC0D9FF0FC0DAFFDF50E8
:103A2000070B136E1350020D490EF324D96E010ECD
:103A3000F420DA6EDECF14F0DDCF15F014C0D9FF1C
:103A400015C0DAFF1250DF1241EF1DF0000E186EA4
:103A5000000E176E41EF1DF01050116E126A1250D9
:103A6000000AD8B436EF1DF026EF1DF01150000A01
:103A7000D8B4C7EF1CF0010AD8B4F8EF1CF026EF59
:103A80001DF017C00EF018C00FF0120026502710BE
:103A9000D8A44DEF1DF04FEF1DF055EF1DF0000EB7
:103AA0002B6E000E2A6EE2EF1DF0010E2624196E19
:103AB000000E27201A6E78EC27F026C019F027C0D8
:103AC0001AF078EC27F0000E2C6E2C502624286E6D
:103AD000000E2720296E020E2824196E000E2920C0
:103AE0001A6E78EC27F019C02AF01AC02BF02C2A95
:103AF000030E2C647EEF1DF080EF1DF065EF1DF0CE
:103B0000340E286EF20EE82EFED7282EFCD726C0E3
:103B100021F027C022F0380E236EBFEC25F00D0EE9
:103B2000286EFC0EE82EFED7282EFCD726C021F0EA
:103B300027C022F0380E236EBFEC25F0020E296E4E
:103B4000860E286E990EE82EFED7282EFCD7292E39
:103B5000FAD700F026C021F027C022F0380E236EDD
:103B6000BFEC25F026C021F027C022F0010E236E05
:103B7000BFEC25F026C021F027C022F0020E236EF4
:103B8000BFEC25F026C021F027C022F0060E236EE0
:103B9000BFEC25F026C021F027C022F00C0E236ECA
:103BA000BFEC25F026C021F027C022F0280E236E9E
:103BB000BFEC25F026C021F027C022F0800E236E36
:103BC000BFEC25F02AC026F02BC027F0120038C029
:103BD000D9FF39C0DAFFDECFF6FFDDCFF7FFF86A95
:103BE0000800F550250AD8A4F8EF1DF0FAEF1DF0F3
:103BF00067EF1EF038C0D9FF39C0DAFFDE2A000EA9
:103C0000DD22000E0001896F000E886F88C0CEF0A3
:103C10008A698B6938C0D9FF39C0DAFFDECF42F03C
:103C2000DDCF43F042C0F6FF43C0F7FFF86A08005B
:103C3000F550640AD8B41FEF1EF021EF1EF030EFEC
:103C40001EF042C0F6FF43C0F7FFF86A0800F550C7
:103C5000690AD8A42EEF1EF030EF1EF05EEF1EF0C2
:103C60003AC0D9FF3BC0DAFFDFCF3CF0020EDE26C0
:103C7000DFCF3DF0000EDD223CC0D9FF3DC0DAFFB2
:103C8000DECF3EF0DDCF3FF0010E42243C6E000E51
:103C900043203D6E38C0D9FF39C0DAFF3CC0DEFF9B
:103CA0003DC0DDFF36C029F037C02AF03EC02BF002
:103CB0003FC02CF074EC1AF07CEF1EF038C0D9FF36
:103CC00039C0DAFFDE2A000EDD227CEF1EF038C09C
:103CD000D9FF39C0DAFFDECFF6FFDDCFF7FFF86A94
:103CE0000800F5500E6E0F6A36C010F037C011F0A4
:103CF00038EC21F05EEF1EF01200373438343E6E9F
:103D00003E50D8A486EF1EF088EF1EF092EF1EF012
:103D1000000E356E000E366E000E376E000E386ED9
:103D2000FFEF1EF035C039F036C03AF037C03BF037
:103D300038C03CF0200EA2EF1EF0D8903C323B324F
:103D40003A323932E82E9DEF1EF039503D6E378EF3
:103D5000FF0E3516FF0E3616FF0E3716000E3816FC
:103D6000960E3E5E3EBEB9EF1EF0B7EF1EF0CFEFEF
:103D70001EF03E50800A970FD8B0C1EF1EF0C3EF7F
:103D80001EF0C5EF1EF088EF1EF0D89038323732A3
:103D9000363235323E3EC5EF1EF0E7EF1EF01F0E05
:103DA0003E64D5EF1EF0D7EF1EF0DFEF1EF088EF78
:103DB0001EF0D89035363636373638363E063E5009
:103DC000D8A4E5EF1EF0E7EF1EF0D9EF1EF03D504E
:103DD000D8B4EDEF1EF0EFEF1EF0F7EF1EF0381E37
:103DE000371E361E356C000E36223722382235C07B
:103DF00035F036C036F037C037F038C038F0120032
:103E00001A501B10D8A407EF1FF009EF1FF00FEF97
:103E10001FF0000E216E000E206E7EEF1FF0000ED0
:103E2000226E000E236E000E236E000E246E2450B0
:103E30001A240E6E000E1B200F6E000E106EA3ECE7
:103E40001CF0242A030E246428EF1FF02AEF1FF031
:103E500017EF1FF023501A240E6E000E1B200F6E5A
:103E6000010E106EA3EC1CF0000E246E24501A24D8
:103E70001E6E000E1B201F6E040E1E240E6E000E02
:103E80001F200F6E220E106E000E116E9DEC21F0A1
:103E90002250D8B44EEF1FF050EF1FF068EF1FF024
:103EA0002350040D010EF3241E6E100EF4201F6E1D
:103EB00024501E26000E1F221EC0F6FF1FC0F7FF53
:103EC000F86A1CC0D9FF1DC0DAFF0800F5CFDFFF7C
:103ED000242A030E24646FEF1FF071EF1FF036EFFA
:103EE0001FF0232A030E236478EF1FF07AEF1FF0F0
:103EF00015EF1FF0000E216E010E206E20C01AF08B
:103F000021C01BF01200000E096E010E086E015058
:103F10000210D8B48EEF1FF090EF1FF099EF1FF052
:103F200003500410D8A497EF1FF099EF1FF09FEFF4
:103F30001FF0000E096E000E086EF5EF1FF020EE68
:103F400005F00150D9260250DA22DFA2AAEF1FF0B5
:103F5000ACEF1FF0C0EF1FF0C350C4CF05F0066AEE
:103F600005C006F0056A0526000E062203C0D9FF2B
:103F700004C0DAFF05C0DEFF06C0DDFFF5EF1FF06D
:103F800020EE05F00150D9260250DA22DFB2CBEF45
:103F90001FF0CDEF1FF0E9EF1FF0C350C4CF05F0C5
:103FA000066A05C006F0056A0526000E0622060E02
:103FB000076E063406320532072ED9EF1FF003C014
:103FC000D9FF04C0DAFF05C0DEFF06C0DDFFF5EF54
:103FD0001FF0C450C350056E066A03C0D9FF04C069
:103FE000DAFF05C0DEFF06C0DDFF08C001F009C032
:103FF00002F0120020EE04F00E50D9260F50DA2203
:10400000DFAA05EF20F007EF20F067EF20F0AB8884
:1040100020EE04F00E50D9260F50DA22DFAC13EF59
:1040200020F015EF20F039EF20F09D8A9D8A20EED8
:1040300008F00E50D9260F50DA22DECF92F0DDCFF5
:1040400093F020EE0AF00E50D9260F50DA22DECF80
:1040500090F0DDCF91F020EE0CF00E50D9260F50ED
:10406000DA22DECF8EF0DDCF8FF0F28EF28C47EFCA
:1040700020F020EE04F00E50D9260F50DA22DFBCDB
:1040800044EF20F046EF20F047EF20F09D9A20EE1D
:1040900004F00E50D9260F50DA22DFAE52EF20F096
:1040A00054EF20F057EF20F0AB8C67EF20F020EEBC
:1040B00004F00E50D9260F50DA22DFBE62EF20F056
:1040C00064EF20F067EF20F0AB9C67EF20F0120068
:1040D000106E8FEF20F09282D0EF20F09284D0EF1C
:1040E00020F09286D0EF20F0928AD0EF20F09680D8
:1040F000D0EF20F09682D0EF20F09684D0EF20F021
:104100009384D0EF20F09386D0EF20F09382D0EF0D
:1041100020F09388D0EF20F09380D0EF20F0105063
:104120000E6E0F6A0F50000AD8B499EF20F0D0EF4E
:1041300020F00E50000AD8B46BEF20F0010AD8B47A
:104140006BEF20F0030AD8B46EEF20F0010AD8B468
:1041500071EF20F0070AD8B474EF20F0010AD8B448
:1041600077EF20F0030AD8B47AEF20F0010AD8B430
:104170007DEF20F00F0AD8B480EF20F0010AD8B408
:1041800083EF20F0030AD8B486EF20F0010AD8B4F8
:1041900089EF20F0070AD8B48CEF20F0D0EF20F0A0
:1041A0001200000E156E010E146E11501210D8A4DC
:1041B000DCEF20F0DEEF20F0E4EF20F0000E156ED3
:1041C000000E146E33EF21F0C29020EE04F0115077
:1041D000D9261250DA22DF50136E134613461346C7
:1041E000C0501318C70B1318C06E20EE03F0115007
:1041F000D9261250DA22DF50136EC0501318F80B74
:104200001318C06E20EE02F01150D9261250DA2297
:10421000DF50136E13461346C2501318C30B131806
:10422000C26E20EE02F01150D9261250DA22DF5071
:1042300068EC20F09D8C9E9CF28EF28C11C0D9FF10
:1042400012C0DAFFDECFCCF0DDCFCDF011C00EF022
:1042500012C00FF096EC29F011C00EF012C00FF052
:1042600071EC29F0C28014C011F015C012F01200D8
:1042700010501110D8B43FEF21F041EF21F04AEF78
:1042800021F010501110D8A448EF21F04AEF21F08E
:104290004FEF21F00E500DEC2BF09CEF21F020EEB3
:1042A0000AF01050D9261150DA22DE50DE10D8B4B0
:1042B0005CEF21F05EEF21F079EF21F020EE0AF0C3
:1042C0001050D9261150DA2210EE03F01050E126DA
:1042D0001150E222DE50E65CE650800A166EDE5097
:1042E000800A1658D8B077EF21F079EF21F09CEFD3
:1042F00021F020EE03F01050D9261150DA22DECF43
:1043000012F0DDCF13F010C0D9FF11C0DAFFDECFFD
:1043100014F0DDCF15F012501424D96E135015206F
:10432000DA6E0EC0DFFF20EE03F01050D9261150D8
:10433000DA22DE2A000EDD221200000E196E010EB6
:10434000186E0E500F10D8B4A8EF21F0AAEF21F08C
:10435000C4EF21F010501110D8B4B1EF21F0B3EF39
:1043600021F0C4EF21F00EC0D9FF0FC0DAFFDF301B
:10437000E832E832070B126E070E1264C2EF21F02A
:10438000C4EF21F0CAEF21F0000E196E000E186E76
:10439000FDEF21F00EC0D9FF0FC0DAFFDF50070B91
:1043A000126E1250020D3F0EF324D96E010EF4204E
:1043B000DA6EDECF13F0DDCF14F013C0D9FF14C0D6
:1043C000DAFFDF50156E0EC0D9FF0FC0DAFFDF3005
:1043D000E832E832070B166E010E176E162AF3EF5D
:1043E00021F0D8901736162EF1EF21F01750151442
:1043F00010C0D9FF11C0DAFFDF6E18C00EF019C06F
:104400000FF01200000E0101736F010E726F21EEAA
:104410006CF0050EDE6AE806FDE2000E746F625075
:104420006310D8A416EF22F018EF22F01EEF22F04E
:10443000000E736F000E726F61EF22F062C00EF01B
:1044400063C00FF0000E116E200E106E000E136E82
:10445000050E126E3FEC1BF020EE05F06250D926DF
:104460006350DA22DF6A6C0E4C6E010E4D6EF40E54
:104470004E6E100E4F6E60C050F061C051F025ECD2
:1044800029F052EF22F06C0E7425D96EDA6A010E13
:10449000DA2274516224E16E000E6320E26EDFCFF7
:1044A000E7FF742B6C0E01017425D96EDA6A010ED8
:1044B000DA22DF50D8A45FEF22F061EF22F043EF61
:1044C00022F072C160F073C161F01200000E136E31
:1044D00011BE6FEF22F06DEF22F075EF22F0106C3D
:1044E000111ED8B0112A010E136E0FBE7CEF22F000
:1044F0007AEF22F082EF22F00E6C0F1ED8B00F2A56
:10450000010E131A000E156E000E146E10501110CD
:10451000D8B48DEF22F08FEF22F0B7EF22F0010E2A
:10452000126E97EF22F0D89010361136122A11AE83
:104530009CEF22F09EEF22F093EF22F0D8901436F9
:10454000153610500E5C11500F58D8A0AAEF22F06B
:10455000ACEF22F0B1EF22F010500E5E11500F5A66
:104560001480D89011321032122E9EEF22F0135088
:10457000D8B4BDEF22F0BFEF22F0C3EF22F0146CED
:10458000151ED8B0152A14C00EF015C00FF0120079
:1045900020EE03F00E50D9260F50DA22DFA0D3EF21
:1045A00022F0D5EF22F021EF23F0AC8A20EE03F0C9
:1045B0000E50D9260F50DA22DFA2E1EF22F0E3EF0E
:1045C00022F0F3EF22F09D889D8820EE06F00E5039
:1045D000D9260F50DA22DECF94F0DDCF95F0F28E9F
:1045E000F28C01EF23F020EE03F00E50D9260F508D
:1045F000DA22DFB2FEEF22F000EF23F001EF23F02A
:104600009D9820EE03F00E50D9260F50DA22DFA439
:104610000CEF23F00EEF23F011EF23F0AC8C21EF21
:1046200023F020EE03F00E50D9260F50DA22DFB42B
:104630001CEF23F01EEF23F021EF23F0AC9C21EFC1
:1046400023F01200000E2B6E010E2A6E265027104A
:10465000D8B42DEF23F02FEF23F038EF23F02850BC
:104660002910D8A436EF23F038EF23F05CEF23F0C5
:10467000000E2B6E000E2A6E75EF23F026C021F07F
:1046800027C022F028C0F6FF29C0F7FF000EF86E01
:104690000F0EF76403D00800F55005D0F6CFE9FF00
:1046A000F7CFEAFFEF50236E82EC25F021C02AF00D
:1046B00022C02BF0284A292A28C0F6FF29C0F7FF7C
:1046C000000EF86E0F0EF76403D00800F55005D009
:1046D000F6CFE9FFF7CFEAFFEF500009D8A473EF58
:1046E00023F075EF23F03EEF23F02AC026F02BC015
:1046F00027F01200000E136E0FBE83EF23F081EF40
:1047000023F089EF23F00E6C0F1ED8B00F2A010E94
:10471000136E11BE90EF23F08EEF23F094EF23F091
:10472000106C111ED8B0112A10501110D8B49BEF84
:1047300023F09DEF23F0C1EF23F0010E126EA5EFE1
:1047400023F0D89010361136122A11AEAAEF23F0BA
:10475000ACEF23F0A1EF23F010500E5C11500F5876
:10476000D8A0B5EF23F0B7EF23F0BBEF23F0105044
:104770000E5E11500F5AD89011321032122EACEF3B
:1047800023F01350D8B4C7EF23F0C9EF23F0CDEFD7
:1047900023F00E6C0F1ED8B00F2A0EC00EF00FC003
:1047A0000FF01200290601EF24F026C021F027C0E7
:1047B00022F02950800F236EBFEC25F01EEF24F06D
:1047C00026C021F027C022F02950C00F236EBFEC75
:1047D00025F01EEF24F026C021F027C022F029503A
:1047E000940F236EBFEC25F01EEF24F026C021F0BD
:1047F00027C022F02950D40F236EBFEC25F01EEF06
:1048000024F028502A6E2B6A2B50000AD8B40BEFE4
:1048100024F01EEF24F02A50010AD8B4D5EF23F07B
:10482000030AD8B4E0EF23F0010AD8B4EBEF23F089
:10483000070AD8B4F6EF23F01EEF24F01200195047
:104840001A10D8A426EF24F028EF24F02EEF24F03D
:10485000000E1D6E000E1C6E63EF24F0D7C01EF01C
:1048600019C0D9FF1AC0DAFFDF50070B1B6E1E50AC
:104870001B18F80B1B181E6E19C0D9FF1AC0DAFFDF
:10488000DF30E832E832070B1B6E1B461B461B4627
:104890001E501B18C70B1B181E6E1E9C19C0D9FF7B
:1048A0001AC0DAFFDFAC02D01E8E01D01E9E1E0E93
:1048B0000E6E000E0F6E010E106EA3EC1CF00EC0FB
:1048C0001CF00FC01DF01CC019F01DC01AF0120022
:1048D00019501A10D8A46FEF24F071EF24F077EF7D
:1048E00024F0000E1D6E000E1C6EACEF24F0D6C03E
:1048F0001EF019C0D9FF1AC0DAFFDF50070B1B6E7C
:104900001E501B18F80B1B181E6E19C0D9FF1AC0B9
:10491000DAFFDF30E832E832070B1B6E1B461B461E
:104920001B461E501B18C70B1B181E6E1E9C19C061
:10493000D9FF1AC0DAFFDFAC02D01E8E01D01E9E56
:104940001E0E0E6E000E0F6E000E106EA3EC1CF00D
:104950000EC01CF00FC01DF01CC019F01DC01AF0D5
:104960001200CA0EF66E540EF76E000EF86E01EECF
:104970003FF010EE2DF00900F5CFEEFFE550E150CD
:10498000FAE11E0EF66E550EF76E000EF86E00EE92
:10499000E1F010EE1EF00900F5CFEEFFE550E1501A
:1049A000FAE1EA0EF66E550EF76E000EF86E00EEA6
:1049B00064F010EE07F00900F5CFEEFFE550E1508E
:1049C000FAE101EE00F03F0EEE6AE806FDE100EECE
:1049D00080F0610EEE6AE806FDE1706A6F6A6E6A49
:1049E0006D6A6C6A6B6A7190719200017CEF08F0DD
:1049F0001D501E10D8A4FFEF24F001EF25F007EFA3
:104A000025F0000E216E000E206E3AEF25F0D8C082
:104A100022F01DC0D9FF1EC0DAFFDF50070B1F6E4A
:104A200022501F18F80B1F18226E1DC0D9FF1EC080
:104A3000DAFFDF30E832E832070B1F6E1F461F46F1
:104A40001F4622501F18C70B1F18226E229C1DC024
:104A5000D9FF1EC0DAFFDFAC02D0228E01D0229E29
:104A6000220E196E000E1A6E78EC27F019C020F095
:104A70001AC021F020C01DF021C01EF012001D50F0
:104A80001E10D8A446EF25F048EF25F04EEF25F094
:104A9000000E226E000E216E7DEF25F0000E236EBB
:104AA000000E236E23501D24196E000E1E201A6E58
:104AB00078EC27F019C021F01AC022F023501D24F1
:104AC0001F6E000E1E20206E040E1F24196E000E95
:104AD00020201A6E78EC27F019C021F01AC022F0BD
:104AE000232A030E236477EF25F079EF25F052EFA8
:104AF00025F0000E226E010E216E21C01DF022C095
:104B00001EF0120021502210D8A489EF25F08BEF5F
:104B100025F091EF25F0000E256E000E246EBAEF01
:104B200025F021C00EF022C00FF0010E106EA3EC94
:104B30001CF00EC024F00FC025F021C019F022C0D7
:104B40001AF023380F0B1B6E2FEC28F021C019F040
:104B500022C01AF033EC2AF021C019F022C01AF05A
:104B600023C01BF02FEC28F021C019F022C01AF04E
:104B700033EC2AF024C021F025C022F0120021508D
:104B80002210D8A4C6EF25F0C8EF25F0CEEF25F00F
:104B9000000E256E000E246EF7EF25F021C00EF0FA
:104BA00022C00FF0000E106EA3EC1CF00EC024F01B
:104BB0000FC025F021C019F022C01AF023380F0BC6
:104BC0001B6E2FEC28F021C019F022C01AF033EC34
:104BD0002AF021C019F022C01AF023C01BF02FECDC
:104BE00028F021C019F022C01AF033EC2AF024C0BA
:104BF00021F025C022F0120023BE01EF26F003EFC2
:104C000026F009EF26F022C027F023C028F00DEF90
:104C100026F0000E286E000E276E000E266E000E87
:104C2000256E1FEF26F0000E0F6E200E0E6E1EC0BA
:104C300010F01FC011F038EC21F0254A262A275029
:104C4000255C2650800A246E2850800A2458D8A05B
:104C50002CEF26F02EEF26F013EF26F020C017F0F1
:104C600021C018F01EC019F01FC01AF0B8EC29F0CE
:104C70001200000E1A6E000E196E16501710D8B4DE
:104C800044EF26F046EF26F06EEF26F0010E186E88
:104C90004EEF26F0D89016361736182A17AE53EF77
:104CA00026F055EF26F04AEF26F0D89019361A363E
:104CB0001650145C17501558D8A061EF26F063EF1A
:104CC00026F068EF26F01650145E1750155A19801A
:104CD000D89017321632182E55EF26F019C014F05E
:104CE0001AC015F01200000E136E010E126E040EA3
:104CF0000F5CD8A07EEF26F080EF26F086EF26F03E
:104D0000000E136E000E126EA7EF26F0000EF2BE1C
:104D1000010E116E0F50030BAA6E0EC0A9FF10C03A
:104D2000A8FFA69EA69CA684F29E550EA76EAA0E6C
:104D3000A76EA682A6B29FEF26F0A1EF26F09AEF0B
:104D400026F0A69411B002D0F29E01D0F28E12C0CD
:104D50000EF013C00FF012002C502D10D8B4B3EF8A
:104D600026F0B5EF26F0BEEF26F030503110D8A473
:104D7000BCEF26F0BEEF26F0C4EF26F0000E336E37
:104D8000000E326EDCEF26F02CC026F02DC027F08E
:104D90002EC028F02FC029F0D2EC23F02CC026F032
:104DA0002DC027F030C028F031C029F022EC23F0CC
:104DB00026C032F027C033F032C02CF033C02DF0C3
:104DC00012006E50D8A4E7EF26F0E9EF26F0FBEFD3
:104DD00026F0F10E016E000E026EDB0E036E000E69
:104DE000046E83EC1FF001C07AF102C07BF1010E6A
:104DF0006E6E13EF27F06E04D8A401EF27F003EFD7
:104E000027F013EF27F0F10E016E000E026ED90E9F
:104E1000036E000E046E83EC1FF001C07AF102C035
:104E20007BF1000E6E6E120019501A10D8A41BEF01
:104E300027F01DEF27F023EF27F0000E1C6E000E69
:104E40001B6E41EF27F019C00EF01AC00FF0010ED3
:104E5000106EA3EC1CF00EC01BF00FC01CF0010E76
:104E600019240E6E000E1A200F6E000E106EA3ECA9
:104E70001CF00EC01BF00FC01CF0000E1C6E010ECB
:104E80001B6E1BC019F01CC01AF0120019501A102A
:104E9000D8A44DEF27F04FEF27F055EF27F0000E85
:104EA0001C6E000E1B6E73EF27F019C00EF01AC0B7
:104EB0000FF0000E106EA3EC1CF00EC01BF00FC024
:104EC0001CF0010E19240E6E000E1A200F6E000E3B
:104ED000106EA3EC1CF00EC01BF00FC01CF0000EF7
:104EE0001C6E010E1B6E1BC019F01CC01AF01200C4
:104EF00019501A10D8A47FEF27F081EF27F087EF21
:104F000027F0000E1C6E000E1B6EA3EF27F019C0D9
:104F10000EF01AC00FF0FAEC1BF00EC01BF00FC021
:104F20001CF019C00EF01AC00FF019C0D9FF1AC03A
:104F3000DAFF000EDFBE010E106EA3EC1CF00EC0F7
:104F40001BF00FC01CF01BC019F01CC01AF012009F
:104F50001D501E10D8A4AFEF27F0B1EF27F0B7EF28
:104F600027F0000E206E000E1F6ED1EF27F01DC03F
:104F700019F01EC01AF078EC27F019C01FF01AC003
:104F800020F0010E1D24196E000E1E201A6E78EC02
:104F900027F019C01FF01AC020F0000E206E010E7D
:104FA0001F6E1FC01DF020C01EF01200000E546EB8
:104FB000010E536E51505210D8A4E1EF27F0E3EFE9
:104FC00027F0E9EF27F0000E546E000E536EFFEF4E
:104FD00027F0AB9E51C045F052C046F0BEEC0EF03B
:104FE00051C00EF052C00FF0C8EC22F051C00EF0CC
:104FF00052C00FF0FAEC1FF0948E948CAB8E53C01D
:1050000051F054C052F01200FAEC29F0F10E116E7A
:10501000000E126ED1EC20F011C07AF112C07BF1BB
:10502000F10E116E000E126ED1EC20F011C07AF16B
:1050300012C07BF1680E0E6E000E0F6EFAEC1BF0C4
:105040000EC07AF10FC07BF15D0E516E010E526EF3
:10505000D6EC27F051C07AF152C07BF11200000E5D
:10506000206E000E206E205019241C6E000E1A2097
:105070001D6E020E1C240E6E000E1D200F6E20C031
:105080001EF01BC01FF01E2A48EF28F0D8901F32D8
:105090001E2E46EF28F01F50010B106EA3EC1CF0E3
:1050A000202A030E206457EF28F059EF28F033EF41
:1050B00028F01200000E326E010E316E2C502D10B1
:1050C000D8A465EF28F067EF28F06DEF28F0000E08
:1050D000326E000E316E7FEF28F02CC026F02DC00E
:1050E00027F02EC028F02FC029F0D2EC23F02CC0DE
:1050F00021F02DC022F030C023F082EC25F031C029
:105100002CF032C02DF01200000E166E010E156E3E
:1051100011501210D8A48FEF28F091EF28F097EFDC
:1051200028F0000E166E000E156EA9EF28F013C0C1
:1051300014F014461446C2501418C30B1418C26E4F
:1051400020EE02F01150D9261250DA22DF5068EC1E
:1051500020F015C011F016C012F0120046C04AF03F
:1051600047C04BF0C2EF28F044C036F045C037F0DE
:105170004A0E386E000E396E48C03AF049C03BF016
:10518000E7EC1DF04AC0F6FF4BC0F7FFF86A0800D5
:10519000F5500009D8A4CFEF28F0D1EF28F0B4EFF4
:1051A00028F0000E456E000E446E1200000E136EC5
:1051B000010E126E10501110D8A4E1EF28F0E3EFA9
:1051C00028F0E9EF28F0000E136E000E126EF9EFD2
:1051D00028F00F50030BAA6E0EC0A9FFA69EA69C36
:1051E000A68000F000F010C0D9FF11C0DAFFA8CFF0
:1051F000DFFF12C00EF013C00FF01200000E166E8B
:10520000000E156E000E166E000E156E19EF29F0C9
:1052100015500F24136E16501020146E13C0F6FF95
:1052200014C0F7FFF86A0800F550D2EC2AF0154ACE
:10523000162A1150155C12501658D8A022EF29F0EA
:1052400024EF29F008EF29F01200500E526E000EE4
:10525000536E4CC054F04DC055F0000E586E000E09
:10526000576E000E5F6E000E5E6E540E446E000EA2
:10527000456E4EC046F04FC047F0520E486E000ECD
:10528000496EAEEC28F057504C24D96E58504D2042
:10529000DA6EDF6A120017501810D8A452EF29F006
:1052A00054EF29F05AEF29F0000E1B6E000E1A6E13
:1052B0006CEF29F017C011F018C012F019C013F0EC
:1052C00084EC28F017C00EF018C00FF04CEC2AF058
:1052D0000EC01AF00FC01BF01AC017F01BC018F058
:1052E000120020EE05F00E50D9260F50DA22DFA072
:1052F0007CEF29F07EEF29F082EF29F0C188C18A86
:1053000095EF29F020EE05F00E50D9260F50DA2245
:10531000DFB08DEF29F08FEF29F093EF29F0C198DE
:10532000C19A95EF29F0C188C18A120020EE05F0DC
:105330000E50D9260F50DA22DFA2A1EF29F0A3EFF9
:1053400029F0A6EF29F0C08EB7EF29F020EE05F086
:105350000E50D9260F50DA22DFB2B1EF29F0B3EFA9
:1053600029F0B6EF29F0C09EB7EF29F0C08E1200E9
:10537000000E1D6E000E1C6EC9EF29F01BC00EF052
:105380000F6A19C010F01AC011F038EC21F01C4A55
:105390001D2A1C501724D96E1D501820DA6EDF50BC
:1053A0001B6E1B50D8A4D7EF29F0D9EF29F0BEEF20
:1053B00029F0120015BEE7EF29F0155006E114049C
:1053C000D8B0E5EF29F0E7EF29F0F5EF29F014C0A8
:1053D00016F015C017F0161E171E164A172A16C00B
:1053E00014F017C015F0F9EF29F014C014F015C02F
:1053F00015F012006A0E1D6E000E1E6EF8EC24F001
:10540000690E1D6E000E1E6EF8EC24F0F70E266E6F
:10541000000E276E46EC1DF0E90E1D6E000E1E6E8E
:105420003FEC25F0FD0E1D6E000E1E6EA8EC27F061
:1054300012009E9C0001CC51CD11D8A422EF2AF07D
:1054400024EF2AF026EF2AF032EF2AF002D832EFCA
:105450002AF00500FA6ECC51FD6ECD51FE6EFF6A4A
:10546000FA5012001200010E19240E6E000E1A20BE
:105470000F6E010E106EA3EC1CF0030EE82EFED78B
:1054800000F0010E19240E6E000E1A200F6E000E91
:10549000106EA3EC1CF01200000E116E010E106EC7
:1054A0000E500F10D8A457EF2AF059EF2AF05FEFF3
:1054B0002AF0000E116E000E106E60EF2AF0C2820C
:1054C00010C00EF011C00FF01200800F810F820F7C
:1054D000830F840F890F8A0F8B0F8C0F8D0F920F04
:1054E000930F940F950F960F802500036000000026
:0754F00000000000000000B5
:1054F8000E501002F3CF12F0F4CF13F00E50110239
:10550800F35013260F501002F350132612C00EF05A
:1055180013C00FF0120001685A622A1A622A030B9C
:10552800131B636B737BC24D00050502020A121A36
:10553800222A1018016EF2900150D8A4A6EF2AF082
:10554800A8EF2AF0AAEF2AF0AAEF2AF01200016EBB
:10555800F2900150D8A4B3EF2AF0B5EF2AF0B7EFD4
:105568002AF0B7EF2AF01200016EF2900150D8A489
:10557800C0EF2AF0C2EF2AF0C4EF2AF0C4EF2AF0F5
:105588001200016EF2900150D8A4CDEF2AF0CFEFAF
:105598002AF0D1EF2AF0D1EF2AF012000E6EACA259
:1055A800D8EF2AF0DAEF2AF0D3EF2AF09D880EC060
:1055B800ADFF1200A19200019751B36E96C0B2FFE1
:1055C800120000019F51CF6E9EC0CEFF1200000155
:1055D800A351D76EA2C0D6FF12009E929AC0CCFFEC
:0955E80012000101010111090189
:1055F2009D9812009E9612009E961200A19612008D
:10560200F0921200F0901200F29212009E94120098
:0C561200A19012009E94120012001200E1
:020000040020DA
:08000000FFFFFFFFFFFFFFFF00
:020000040030CA
:0E000000FF02091EFF8381FF0FC00FE00F40BB
:00000001FF
